:020000040800F2
:10000000000400203B020008490200084B020008DF
:100010004D0200084F0200085102000800000000D5
:100020000000000000000000000000005302000873
:10003000550200080000000057020008590200089D
:100040003F0D00085B0200085B020008F73900085A
:100050005B0200085B020008E13A00085B0200084E
:10006000890B0008B10B0008D90B00085B020008DF
:100070005B0200085B0200085B0200085B020008EC
:100080005B0200085B0200085B0200085B020008DC
:100090005B0200085B0200085B0200085B020008CC
:1000A0005B0200085B0200085B0200085B020008BC
:1000B00037480008790D00085B0200085B02000861
:1000C0005B0200085B0200085B0200085B0200089C
:1000D0005B020008AD080008154000085B0200083C
:1000E0005B0200085B0200085B0200085B0200087C
:1000F0005B0200085B0200085B0200085B0200086C
:100100005B0200085B020008310F00085B02000878
:100110005B0200085B0200085B0200085B0200084B
:100120005B0200085B0200085B0200085B0200083B
:1001300000F002F800F06BF80AA090E8000C82448E
:100140008344AAF10107DA4501D100F060F8AFF26B
:10015000090EBAE80F0013F0010F18BFFB1A43F0A5
:1001600001031847E46A0000046B00000A444FF0E2
:10017000000C10F8013B13F0070408BF10F8014B06
:100180001D1108BF10F8015B641E05D010F8016B4B
:10019000641E01F8016BF9D113F0080F1EBF10F8AF
:1001A000014BAD1C0C1B09D16D1E58BF01F801CBD2
:1001B000FAD505E014F8016B01F8016B6D1EF9D555
:1001C0009142D6D37047000000230024002500266A
:1001D000103A28BF78C1FBD8520728BF30C148BFAA
:1001E0000B607047642905F08180752905F07E80D9
:1001F000782905F0B780632905F01282732905F08C
:100200001782002070471FB51FBD10B510BD05F047
:1002100041FA1146FFF7F7FF00F032F805F05FFAF8
:1002200003B4FFF7F2FF03BC00F032FB30BF72B63D
:1002300062B680F30888704770470B4880470B49C7
:1002400081F308880A480047FEE7FEE7FEE7FEE77D
:10025000FEE7FEE7FEE7FEE7FEE7FEE705480649A4
:10026000044A064B7047000039020008E00A0020EB
:1002700031010008E0020020E00A0020E002002036
:100280001FB50024002600277AA0006803907AA0FA
:1002900000680290092000F0A0FA4FF4165148209F
:1002A00000F03FFB482000F029F900F0B1FB01F01D
:1002B00042FA724841684820884700F0E1FB4FF459
:1002C0001651242003F0D3FE4FF478406C49088087
:1002D0006CA010210B46C822CDE9001032213C2031
:1002E00003F04CF96BA010210B46C822CDE9001099
:1002F00046213C2003F042F969A010210B46C82298
:10030000CDE900105A213C2003F038F968A01021F3
:100310000B46C822CDE900106E213C2003F02EF9D7
:1003200066A010210B46C822CDE9001082213C2096
:1003300003F024F91F205249088063A010210B46C6
:10034000C822CDE9001096213C2003F017F960A0E7
:1003500010210B46C822CDE90010AA213C2003F051
:100360000DF95EA010210B46C822CDE90010D22164
:100370003C2003F003F97BE0002000F0ACFB0546D5
:10038000012D22D10A2000F0F0F8012D1DD101200D
:10039000564908604FF0000412E080201021CDE99A
:1003A000001002A90A5D1E2101EB44100323BE21A7
:1003B00003F077F8022102A803F0D8FE601CC4B253
:1003C000022CEADB002049490860032D2BD10A20CA
:1003D00000F0CBF8032D26D10120444908604FF0EE
:1003E000000412E080201021CDE9001002A90A5D6E
:1003F0001E2101EB44100323BE2103F052F8032118
:1004000003A803F0B3FE601CC4B2022CEADB002098
:10041000364908603648D0F8940108B9012000E058
:1004200000203449086006F10100C6B24FF00A000E
:1004300000F09BF8142E1BD12F48006808B901204A
:1004400000E000202C4908604FF0000607F1010091
:10045000C7B24FF080004FF010014FF003033A464F
:10046000CDE900104FF096014FF06C0003F019F841
:1004700082E7000002640D00640D0000740000209B
:1004800012000020576172536869702053544D3335
:100490003200000052533438352054455354000084
:1004A000576172536869702D2D504C430000000055
:1004B000323031342F30392F303100004B45593034
:1004C0003A53656E64000000436F756E743A000025
:1004D00053656E6420446174613A0000526563653F
:1004E00069766520446174613A000000A4012442E9
:1004F0000000234294012342948121424FF0E021E5
:10050000096921F004014FF0E0221161C21700EBEC
:100510005272C2F3C702224B1A701946097801EBD6
:100520004102C2EBC1114FF6FF7202EAC1011D4A3E
:100530001180704701461A4A12784A434FF0E0236F
:100540005A6100229A6101221A6100BF4FF0E02235
:10055000106910F0010F02D010F4803FF6D0002295
:100560004FF0E0231A619A61704701460D4A1288E4
:100570004A434FF0E0235A6100229A6101221A6136
:1005800000BF4FF0E022106910F0010F02D010F40C
:10059000803FF6D000224FF0E0231A619A61704745
:1005A0000000002002000020AC4A0A400243AC4B8D
:1005B0001A6070470146072323EA01021202A84B82
:1005C0001B1D18684FF6FF031840A64B1843104335
:1005D000A34B1B1D186070472DE9F04780468946E4
:1005E00014461D462046E11704EB9171C1F3870ABA
:1005F000E11704EB91718910A4EB8101CFB20420C3
:1006000000EBC700C7B22846FFF7D4FFC5F10400CE
:1006100008FA00F60F20284100EA0900064306F018
:100620000F06202C0CDA904801684FF0010000FA08
:1006300004F041EA00014FF0E020C0F800110DE0A5
:100640008A480068A4F120014FF0010202FA01F289
:1006500040EA02004FF0E021C1F80401844850F85C
:100660002A0006FA07F140EA0100814941F82A0010
:10067000BDE8F08770B504460B46CE1701EB9676C1
:10068000C6F38700CE1701EB9676B610A1EB86066F
:10069000B606350E774B9B6943F00103754EB36187
:1006A0004FEAB63353F820300F26AE40B343724EB4
:1006B00046F82030334653F8203004FA05F61E433E
:1006C0006D4B43F820606D4B1B6801268E40334311
:1006D0006A4E336012F0010F08D0684B0C331B6870
:1006E00001268E403343654E0C36336012F0020F04
:1006F00008D0624B08331E6801238B401E435F4BBA
:1007000008331E6070BD00B500205A490861C860FA
:100710001420486100208861C8610846006840F0E4
:100720000100086008464068554908405149486042
:1007300008460068534908404E490860084600686A
:1007400020F4802008600846406820F4FE004860DD
:100750000020886000214FF00060FFF725FF00BDFA
:1007600010B53F480830006840F004003C490831AB
:1007700008604048C06940F080503E49C861424826
:10078000406840F48070404948600846006840F086
:10079000040008600846006840F002000860FFF7A7
:1007A00045FD10BD2F48001D2D49091D08607047EB
:1007B000014649062F4A926942F001022D4B9A6187
:1007C0002D4A083A526822F0E0622B4B083B5A60EF
:1007D0001A4652680A435A60704730B504460025ED
:1007E000FFF791FF2348006840F4803021490860FA
:1007F00000BF20480068400CFBD04FF480601D49CA
:100800004860A01EC4B20846406840EA8440486080
:100810000846406840F4803048601C48006840F05A
:1008200032001A4908601348006840F0807011498E
:10083000086000BF0F480068400EFBD00D484068BC
:1008400040F002000B49486005E00A484068C0F3E8
:10085000870505F00305022DF7D130BD80FFFF1F8E
:1008600008ED00E00000FA0500E100E004E100E02E
:1008700000E400E0001002400800014000040140D4
:100880000000FFF8FFFFF6FE00700040002002406D
:10089000014600BF704700BF574A128812F0400F50
:1008A000FAD0C2B2544B1B1D1A80704752490988B6
:1008B00011F0200F34D05049091D0988C8B24F49A2
:1008C000098811F4004F2BD14C49098811F4804F4D
:1008D0000CD00A2803D00021484A118020E0474963
:1008E000098841F40041454A118019E00D2806D1DC
:1008F0004249098841F48041404A118010E03F4953
:100900000988C1F30D013E4A50543C490988491CED
:100910003A4A118011460988C72901DD002111805A
:1009200070472DE9F05F05460E46300105F038FAB4
:100930008146344905FB01F005F032FA824649460A
:1009400005F04CF90746384605F00AFA84B220460D
:1009500005F026FA8346394605F002FB82464FF041
:10096000834105F031FA814605F0FAF980464FF6E9
:10097000FF7000EA041404EB080084B22248806986
:1009800040F00400204988610846806940F48040B6
:1009900088611E48006820F47F601C490860084692
:1009A000006840F40B6008601748C06840F480405D
:1009B0001549C8600846C06820F48040C8600E48E9
:1009C00008300480001D008842F20C0108430A49E7
:1009D0000C3108800846008840F480700880084682
:1009E000008840F0200008800223252203210846C9
:1009F000FFF7F2FDBDE8F09F003801400400002041
:100A00006001002040420F00001002400408014035
:100A10001848806940F008001649886108468069D6
:100A200040F0400088611448006820F470001249CA
:100A300008600846006840F4401008600E480C301A
:100A4000006840F020000C490C3108600B48006839
:100A500020F47000094908600846006840F440101E
:100A6000086006480C30006840F0200003490C3153
:100A70000860704700100240000C0140001801405F
:100A80003748806940F0040035498861084680692C
:100A900040F0400088613348006820F00F00314981
:100AA00008600846006840F0080008602E480068AA
:100AB0002E4908402C490860084600682C49084324
:100AC0002949086028480C30006840F01C0026497D
:100AD0000C310860704710B5044614B10120254957
:100AE00008702448007838B32348006848B1234888
:100AF000006830B12248006818B122480068012817
:100B00001AD10A20FFF731FD00201A4908701A484F
:100B1000006808B9012010BD1848006808B9022013
:100B2000F9E71748006808B90320F4E7154800689A
:100B3000012813D10420EEE70F48006801280DD1E9
:100B40000E480068012809D10D480068012805D128
:100B50000C48006810B90120064908700020DAE747
:100B6000001002400008014000180140FF00F0FFA3
:100B7000008808000C000020100123420C012342D1
:100B8000080123420001214210B50A20FFF7EDFCC5
:100B90003848006838B93848006808B9012000E0D2
:100BA0000020354908604FF004003449086010BD4A
:100BB00010B50A20FFF7D9FC3148006838B9314830
:100BC000006808B9012000E000202E4908604FF0BD
:100BD00008002A49086010BD10B50A20FFF7C5FCBF
:100BE0002948006880B92448006808B9012000E05D
:100BF0000020214908602548D0F8940108B9012057
:100C000000E000201F4908604FF010001B490860F9
:100C100010BD10B5FFF734FF022200210846FFF790
:100C200029FD012202210420FFF724FD01220321D6
:100C30000420FFF71FFD012204210846FFF71AFDDB
:100C40000223062203211846FFF7C6FC02230822CE
:100C500019461846FFF7C0FC022309220121184655
:100C6000FFF7BAFC02230A2200211846FFF7B4FC62
:100C700010BD000008012342948121421404014068
:100C80000C0123429401234210012342000023421D
:100C900045F25552334B1A601A46506091604AF63D
:100CA000AA221A604CF6CC421A6070474AF6AA2073
:100CB0002C490860704770B506460C4615462A4810
:100CC000C06940F400602849C86128480078304075
:100CD000264908702648006840EAC5102449086083
:100CE000084600684FF680710840214908600846B0
:100CF000006820430860081F00681C490978084301
:100D00001B49091F08600846006840F08000086021
:100D10000223002203211846FFF75EFC002014493D
:100D2000091D0860081F006840F40070091F086072
:100D300070BD00F07F010E4A121F1160704700B5B0
:100D40000A480078FFF7F5FF00200949091D0860EF
:100D50000848006808B9012000E000200549086043
:100D600000BD000000300040001002400D000020D7
:100D7000042C004094012342BA48008810F0010F6F
:100D800007D0B948006808B9012000E00020B64942
:100D90000860B448008820F00100B249088070471C
:100DA00070B505460C46B148C06940F00200AF4935
:100DB000C861AC481C300580001F0480A948001F92
:100DC000008840F00100A749091F0880A548103895
:100DD000008840F00100A3491039088002231D2239
:100DE00003210120FFF7F8FB70BDA04AD26942F051
:100DF00002029E4BDA611A46926942F008029A6139
:100E00009B4A126822F47002994B1A601A461268C3
:100E100042F430021A60954A926942F00102934B03
:100E20009A61944A526822F44062924B5A601A4680
:100E3000526842F400625A608A4A1C321080121FC3
:100E40001180884A0832128842F4E042854B083308
:100E50001A801A46128842F400621A80814A1032BF
:100E6000128842F010027F4B10331A80DA137D4B48
:100E7000103B1A801A46128842F001021A8070470D
:100E800070B504460D467948C06940F008007749BE
:100E9000C8610846806940F00400886176480068AF
:100EA00020F00F00744908600846006840F0080010
:100EB000086071480C3000686F490C3108606F4859
:100EC0000480001F05806D481438008840F0010040
:100ED0006A49143908800846008808800846008856
:100EE000088066480C38008864490C390880084638
:100EF000008840F00100088060482038008840F0F9
:100F000002005E49203908800846008840F0010050
:100F100008805A482C38008840F0010057492C3985
:100F200008800223322200211846FFF755FB70BDCE
:100F300052491C3908885249097811F0800F4ED166
:100F400010F0010F1AD04E49097811F0400F15D05A
:100F50004B49097801F03F013F290AD148490978F6
:100F600041F08001464A11704FF6FF71454A1180E9
:100F700004E043490978491C414A117010F0020FFE
:100F80002DD03F49097811F0400F13D03C49097822
:100F900041F080013A4A1170384908310988394ACC
:100FA000118036490C39098821F00201334A0C3A84
:100FB000118014E00021324A1170324A1180304908
:100FC000097841F040012E4A117000212B4A083A5D
:100FD0001180111F098841F00201121F11800021A8
:100FE000264A1C3A11807047204AD26942F0040216
:100FF0001E4BDA611A46926942F008029A611C4A55
:10100000126822F07F421A4B1A601A46126842F0A8
:1010100096421A601C4A1080121F11801A4A143A14
:10102000128842F07002184B143B1A801A4612883C
:1010300042F008021A80144A0C3A128842F0020266
:10104000114B0C3B1A801A46128842F001021A809A
:1010500080220D4B2C3B1A801A46128842F0010266
:101060001A8070471004004094012342001002408F
:10107000000C014000000140000801402C0C004021
:101080000E000020100000202C080040FB490880C2
:101090007047FA49891C08807047F848801C00880E
:1010A0007047F64A1080921C1180704710B50446B4
:1010B0002046FFF7EBFF0520FFF73CFAFFF7EDFFB7
:1010C00010BDEF48C079ED4908807047EB49891C95
:1010D0000880704730B5014601F01F04C1F3451385
:1010E000CA0AE50205EB43151544A8B230BD00BF9E
:1010F0000100A0F10102D0B2FAD1704710B5034649
:101100000C46DF488088A0F51341413914D1DC49F1
:10111000087AFFF7BBFF1812FFF7BBFFD8B2FFF743
:10112000B8FFD749487AFFF7B1FF2012FFF7B1FFA8
:10113000E0B2FFF7AEFF36E0D1488088A0F5D0419D
:1011400004391DD1CE488079012804D1CC480088CB
:10115000401EC01A83B2CA49087AFFF797FF1812D7
:10116000FFF797FFD8B2FFF794FFC549487AFFF71A
:101170008DFF2012FFF78DFFE0B2FFF78AFF12E02C
:10118000BF488079012804D1BD480088401EC01A9C
:1011900083B2BB49087A1946FFF783FFB849487AFA
:1011A0002146FFF77EFF10BD2DE9F04105460E46B2
:1011B00000240027A046B2480088A84203DDB048BA
:1011C0004088B04202DC0020BDE8F081314628466C
:1011D000FFF794FFAA488088A0F51341413905D054
:1011E000A7488088A0F5D041043903D12E20FFF70D
:1011F0004DFF02E02220FFF749FFA1488088A0F5BB
:101200001341203902D10220FFF771FF9B48801C57
:10121000008800B100240220FFF769FF9748801C76
:10122000048897488088A0F5134141390CD10220E9
:10123000FFF75DFF9148801CB0F80080E7B24FF6E1
:10124000FF7000EA072708E08D488088A0F5D041AC
:10125000043902D18948801C048889488088A0F517
:101260001341253917D086488088A0F58A41353941
:1012700011D083488088A0F58A4131390BD080484D
:101280008088A0F50941893905D07D488088A0F57E
:101290003541053901D1204696E779488088A0F587
:1012A0001341413907D1E012C002B91240EA41109E
:1012B00040EAE82088E72046FFF70CFF84E700B506
:1012C0006F488088A0F51341413905D06C4880886B
:1012D000A0F5D041043903D12920FFF7D7FE04E05F
:1012E00040F273110720FFF7DCFE00BD00B5644833
:1012F0008088A0F51341413905D061488088A0F568
:10130000D041043903D12820FFF7C0FE03E00021BB
:101310000720FFF7C6FE00BDF0B5054600240027F4
:101320005748807901281ED155488088A0F5D041C2
:10133000043918D0082D15D2DFE805F00406080A94
:101340000C0E101206250DE007250BE0042509E020
:10135000052507E0012505E0002503E0032501E060
:10136000022500BF00BF46488088A0F513414139DF
:1013700005D043488088A0F5D04104397DD1082D9F
:101380001CD2DFE805F00406090C0F12151800BF87
:1013900014E044F0800411E044F040040EE044F016
:1013A000C0040BE044F0200408E044F0600405E0D1
:1013B00044F0A00402E044F0E00400BF00BF362780
:1013C00044F008042E488088A0F5D041043901D1AA
:1013D00044F0020421463846FFF763FE14F0200F64
:1013E00003D12748807901280DD125480088244958
:1013F0004988884214DA22480688408820490880B3
:10140000084646800CE01E4800881D4949888842ED
:1014100006DD1B4806884088194908800846468032
:101420001749087AFFF732FE0020FFF732FE00204E
:10143000FFF72FFE12490988491EC1F30F20FFF75D
:1014400028FE0F490978491EC8B2FFF722FE0C4951
:10145000487AFFF71BFE0020FFF71BFE0020FFF776
:1014600018FE07494988491EC1F30F20FFF711FEF6
:1014700003498978491EC8B204E006E0FE07006C03
:1014800028020020FFF705FE31E0082D1CD2DFE81E
:1014900005F004070A0D0F12151844F0300413E08C
:1014A00044F0100410E044F020040DE000BF0BE015
:1014B00044F0380408E044F0280405E044F018043F
:1014C00002E044F0080400BF00BFFE488088A0F599
:1014D0000941893904D1112746F24000044302E052
:1014E000032744F4805421463846FFF7DAFDF0BD67
:1014F00030B504460D4629462046FFF7FFFDFFF7AD
:10150000E0FDF1480088F149088030BD30B5034660
:101510000C461546EB488088A0F51341413914D19B
:10152000E849087AFFF7B2FD1812FFF7B2FDD8B20A
:10153000FFF7AFFDE349487AFFF7A8FD2012FFF758
:10154000A8FDE0B2FFF7A5FD36E0DE488088A0F5F3
:10155000D04104391DD1DB488079012804D1D94814
:101560000088401EC01A83B2D649087AFFF78EFD64
:101570001812FFF78EFDD8B2FFF78BFDD149487ADC
:10158000FFF784FD2012FFF784FDE0B2FFF781FD35
:1015900012E0CC488079012804D1CA480088401E56
:1015A000C01A83B2C749087A1946FFF77AFDC549C0
:1015B000487A2146FFF775FDC248C079C349891EA4
:1015C0000880881C058030BD10B50446002C3DD134
:1015D000BC498871F02008804FF4A070488008460C
:1015E0008088A0F51341413905D0B6488088A0F520
:1015F000D041043914D12C20B249C8712A20087274
:101600002B20487208468088A0F5D04104395CD16F
:101610004FF4A070AB4908804FF4F070488054E05C
:10162000A8488088A0F50941893907D12220A54919
:10163000C8714E2008724F20487246E02220A1490E
:10164000C87120200872212048723EE001209D4987
:1016500088714FF4A0700880F02048800846808888
:10166000A0F51341413907D12C209649C8712A2091
:1016700008722B20487228E092488088A0F5D0415B
:1016800004390DD12C208F49C8712B2008722A20D3
:1016900048724FF4F07008804FF4A070488014E056
:1016A00088488088A0F50941893907D122208549D9
:1016B000C8714F2008724E20487206E022208149EE
:1016C000C87121200872202048720020FFF724FEF4
:1016D00010BD70B5044600267A4805884088454309
:1016E00078488088A0F5D041043916D175488079B2
:1016F000012812D10020734988712A2008722B20FA
:10170000487200210846FFF7F9FC01206D498871F5
:101710002B2008722A20487203E000210846FFF7B8
:10172000EDFCFFF7CEFC002602E068480480761C42
:10173000AE42FAD370BD10B56548406940F4807080
:10174000634948610846806940F00800886108469E
:10175000806940F0200088610846806940F04000C0
:1017600088610846806940F4807088615948006843
:1017700020F00F00574908600846006840F0030059
:1017800008605548006855490840534908600846B4
:1017900000685349084350490860081F006800F07A
:1017A000FF20091F08600846006840F0BB10086071
:1017B0004C48006800204B4908600846006840F02B
:1017C000BB300860081F006820F07040091F0860E7
:1017D0000846006840F0304008604348406820F404
:1017E0007020414948600846406840F43020486015
:1017F0000846006820F00F0008600846006840F0C6
:101800000B00086000204FF020418861C861374913
:1018100008604FF02040806940F480504FF0204134
:1018200088610846806940F4804088610846806984
:1018300040F0100088610846C069C8610846C06968
:1018400040F00100C8610846C06940F47060C8619A
:1018500026480068C1F81C0124480068C1F81C0132
:101860000846D0F81C0140F44070C1F81C0108463D
:10187000806940F0010088614FF03200FEF775FE8C
:1018800001210020FFF70DFC3220FEF76EFE002044
:10189000FFF70CFC0B49888008468088FF280ADB8C
:1018A00008468088A0F57F41FF3904D0054880882C
:1018B000B0F5134F63D1D320FFF7E8FBFFF7EDFB43
:1018C00016E0000028020020120000200008006C32
:1018D00000100240000C01400414014000F0FF0021
:1018E000BB0B00BB04180140002001401C0100A0FC
:1018F000FFF7D3FBFFF7D1FBFE49888008468088BD
:101900004FF6FF7101EA0020FA498880FFF7C5FB16
:10191000F84989880843F749888008468088A0F5F7
:10192000134141391BD0BF20FFF7B0FBFFF7B5FBD8
:10193000FFF7B3FBFFF7B1FBFFF7AFFBED49888083
:10194000084680884FF6FF7101EA0020E949888047
:10195000FFF7A3FBE74989880843E6498880E54803
:101960008088A0F51341413909D0E2488088A0F56C
:10197000D041043903D049F24130DE498880DD4846
:101980008188DDA003F054FCDA488088A0F513417B
:1019900041397CD1CF20FFF779FB0020FFF779FB9D
:1019A000C120FFF776FB3020FFF773FBED20FFF738
:1019B0006DFB6420FFF76DFB0320FFF76AFB12202D
:1019C000FFF767FB8120FFF764FBE820FFF75EFB72
:1019D0008520FFF75EFB1020FFF75BFB7A20FFF707
:1019E00058FBCB20FFF752FB3920FFF752FB2C208E
:1019F000FFF74FFB0020FFF74CFB3420FFF749FBBC
:101A00000220FFF746FBF720FFF740FB2020FFF7FF
:101A100040FBEA20FFF73AFB0020FFF73AFB0020EB
:101A2000FFF737FBC020FFF731FB1B20FFF731FB2F
:101A3000C120FFF72BFB0120FFF72BFBC520FFF791
:101A400025FB3020FFF725FB3020FFF722FBC720C6
:101A5000FFF71CFBB720FFF71CFB3620FFF716FB38
:101A60004820FFF716FB3A20FFF710FB5520FFF741
:101A700010FBB120FFF70AFB0020FFF70AFB1A203A
:101A8000FFF707FBB620FFF701FB0A2000E099E013
:101A9000FFF7FFFAA220FFF7FCFAF220FFF7F6FAB1
:101AA0000020FFF7F6FA2620FFF7F0FA0120FFF7F3
:101AB000F0FAE020FFF7EAFA0F20FFF7EAFA2A200F
:101AC000FFF7E7FA2820FFF7E4FA0820FFF7E1FA2A
:101AD0000E20FFF7DEFA0820FFF7DBFA5420FFF7AD
:101AE000D8FAA920FFF7D5FA4320FFF7D2FA0A2047
:101AF000FFF7CFFA0F20FFF7CCFA0020FFF7C9FA63
:101B00000020FFF7C6FA0020FFF7C3FA0020FFF716
:101B1000C0FAE120FFF7BAFA0020FFF7BAFA152061
:101B2000FFF7B7FA1720FFF7B4FA0720FFF7B1FA6B
:101B30001120FFF7AEFA0620FFF7ABFA2B20FFF7D4
:101B4000A8FA5620FFF7A5FA3C20FFF7A2FA0520D5
:101B5000FFF79FFA1020FFF79CFA0F20FFF799FA82
:101B60003F20FFF796FA3F20FFF793FA0F20FFF789
:101B700090FA2B20FFF78AFA0020FFF78AFA00205C
:101B8000FFF787FA0120FFF784FA3F20FFF781FA79
:101B90002A20FFF77BFA0020FFF77BFA0020FFF7EF
:101BA00078FA0020FFF775FAEF20FFF772FA11209C
:101BB000FFF76CFA7820FEF7D8FC2920FFF766FAC9
:101BC00001F018BA4B488088A0F5D04104397CD187
:101BD0001120FFF75BFA1420FEF7C7FCD020FFF7B7
:101BE00055FA0720FFF755FA4220FFF752FA1D2059
:101BF000FFF74FFAD120FFF749FA0020FFF749FA23
:101C00001A20FFF746FA0920FFF743FAD220FFF720
:101C10003DFA0120FFF73DFA2220FFF73AFAC020F3
:101C2000FFF734FA1020FFF734FA3B20FFF731FAC0
:101C30000020FFF72EFA0220FFF72BFA1120FFF702
:101C400028FAC520FFF722FA0320FFF722FAC8205E
:101C5000FFF71CFA0020FFF71CFA2520FFF719FAFE
:101C60002120FFF716FA0520FFF713FA0020FFF7EF
:101C700010FA0A20FFF70DFA6520FFF70AFA25206F
:101C8000FFF707FA7720FFF704FA5020FFF701FA71
:101C90000F20FFF7FEF90020FFF7FBF9F820FFF710
:101CA000F5F90120FFF7F5F9FE20FFF7EFF9002025
:101CB000FFF7EFF90220FFF7ECF92020FFF7E6F934
:101CC0003620FFF7E3F9082000E038E0FFF7E1F9FC
:101CD0003A20FFF7DBF95520FFF7DBF92B20FFF760
:101CE000D5F90020FFF7D5F90020FFF7D2F9012040
:101CF0000AE0000028020020204C43442049443AD6
:101D000025780D0A00000000FFF7C3F93F20FFF718
:101D1000C0F92A20FFF7BAF90020FFF7BAF900202E
:101D2000FFF7B7F90120FFF7B4F9DF20FFF7B1F9AA
:101D30007820FEF71AFC2920FFF7A8F940E7FE48B3
:101D40008088A0F5134125397ED147F6F001E520C2
:101D5000FFF7A7F94FF480710120FFF7A2F94FF4C4
:101D6000E0610220FFF79DF941F230010320FFF707
:101D700098F900210420FFF794F940F2022108208D
:101D8000FFF78FF900210920FFF78BF900210A20C6
:101D9000FFF787F900210C20FFF783F900210D20C0
:101DA000FFF77FF900210F20FFF77BF900211020BA
:101DB000FFF777F907211120FFF773F900211220AF
:101DC000FFF76FF900211320FFF76BF900210720BF
:101DD000FFF767F941F290611020FFF762F940F2D6
:101DE00027211120FFF75DF99D211220FFF759F9F6
:101DF0004FF4C8511320FFF754F925212920FFF78C
:101E000050F90D212B20FFF74CF907213020FFF767
:101E100048F940F203313120FFF743F90321322022
:101E2000FFF73FF940F206213520FFF73AF9082184
:101E30003620FFF736F940F206413720FFF731F937
:101E40004FF44171382000E057E0FFF72AF90721ED
:101E50003920FFF726F940F202613C20FFF721F913
:101E600008213D20FFF71DF900215020FFF719F947
:101E7000EF215120FFF715F900215220FFF711F94A
:101E800040F23F115320FFF70CF94FF42741602037
:101E9000FFF707F901216120FFF703F900216A200C
:101EA000FFF7FFF800218020FFF7FBF800218120D9
:101EB000FFF7F7F800218220FFF7F3F800218320D5
:101EC000FFF7EFF800218420FFF7EBF800218520D1
:101ED000FFF7E7F810219020FFF7E3F84FF4C06117
:101EE0009220FFF7DEF840F233110720FFF7D9F810
:101EF00022210020FFF7D5F862E68F488088A0F500
:101F0000134128397ED141F28F01EC20FFF7C9F847
:101F100041F23421EF20FFF7C4F84FF48071012023
:101F2000FFF7BFF84FF4E0610220FFF7BAF841F283
:101F300030010320FFF7B5F800210420FFF7B1F8C6
:101F400040F202210820FFF7ACF800210920FFF73A
:101F5000A8F800210A20FFF7A4F801210C20FFF7C0
:101F6000A0F800210D20FFF79CF800210F20FFF7BB
:101F700098F800211020FFF794F807211120FFF7AF
:101F800090F800211220FFF78CF800211320FFF7B2
:101F900088F801210720FFF784F83220FEF7E5FAE0
:101FA00041F290411020FFF77CF840F227211120E8
:101FB000FFF777F83220FEF7D8FA8A211220FFF7D0
:101FC00070F83220FEF7D1FA4FF4D0511320FFF70A
:101FD00068F806212920FFF764F80D212B20FFF770
:101FE00060F83220FEF7C1FA00212020FFF759F8EF
:101FF00000212120FFF755F83220FEF7B6FA002124
:10200000302000E074E0FFF74CF840F2046131202A
:10201000FFF747F840F205313220FFF742F8002180
:102020003520FFF73EF840F609413620FFF739F832
:102030004FF401713720FFF734F840F201313820B6
:10204000FFF72FF840F207713920FFF72AF8002137
:102050003C20FFF726F840F60A213D20FFF721F843
:102060003220FEF782FA00215020FFF71AF8EF2104
:102070005120FFF716F800215220FFF712F840F226
:102080003F115320FFF70DF84FF427416020FFF771
:1020900008F801216120FFF704F800216A20FFF70A
:1020A00000F800218020FEF7FCFF00218120FEF7D0
:1020B000F8FF00218220FEF7F4FF00218320FEF7C5
:1020C000F0FF00218420FEF7ECFF00218520FEF7C1
:1020D000E8FF10219020FEF7E4FF4FF4C06192204A
:1020E000FEF7DFFF40F233110720FEF7DAFF67E566
:1020F00011488088A0F5134120397DD10846FEF7AC
:10210000D0FF4FF480710120FEF7CBFF4FF4E06168
:102110000220FEF7C6FF41F230010320FEF7C1FFA7
:1021200000210420FEF7BDFF40F202210820FEF747
:10213000B8FF0021092001E028020020FEF7B1FFCE
:1021400000210A20FEF7ADFF01210C20FEF7A9FFB8
:1021500000210D20FEF7A5FF00210F20FEF7A1FFB3
:102160003220FEF702FA40F201110720FEF799FF34
:102170003220FEF7FAF94FF486511020FEF791FF56
:1021800007211120FEF78DFF4FF488711220FEF712
:1021900088FF4FF430611320FEF783FF00212920D0
:1021A000FEF77FFF44F210012B20FEF77AFF00219B
:1021B0005020FEF776FFEF215120FEF772FF00213D
:1021C0005220FEF76EFF40F23F115320FEF769FFE9
:1021D0004FF41C516020FEF764FF01216120FEF7DF
:1021E00060FF00216A20FEF75CFF00218020FEF7DF
:1021F00058FF0021812000E030E0FEF752FF00216F
:102200008220FEF74EFF00218320FEF74AFF0021C7
:102210008420FEF746FF00218520FEF742FF1021B3
:102220009020FEF73EFF00219220FEF73AFF0121A9
:102230009320FEF736FF4FF488719520FEF731FFAB
:1022400000219720FEF72DFF00219820FEF729FF9F
:1022500040F273110720FEF724FFB1E4FE488088A6
:10226000A0F5134131397DD141F21401E720FEF789
:1022700018FF4FF480710120FEF713FF4FF4007137
:102280000220FEF70EFF41F238010320FEF709FF9E
:1022900040F202210820FEF704FF00210920FEF78A
:1022A00000FF00210A20FEF7FCFE00210C20FEF7B3
:1022B000F8FE00210D20FEF7F4FE00210F20FEF7AE
:1022C000F0FE00211020FEF7ECFE07211120FEF7A2
:1022D000E8FE00211220FEF7E4FE00211320FEF7A5
:1022E000E0FEC820FEF741F941F290611020FEF7B0
:1022F000D8FE40F227211120FEF7D3FE3220FEF750
:1023000034F90C211220FEF7CCFE3220FEF72DF915
:102310004FF400611320FEF7C4FE11212920FEF7BF
:10232000C0FE0B212B20FEF7BCFE3220FEF71DF96C
:1023300000212020FEF7B5FE40F23F112120FEF7DC
:10234000B0FE00213020FEF7ACFE4FF48371312047
:10235000FEF7A7FE00213220FEF7A3FE4FF4017125
:10236000352000E064E0FEF79CFE41F20A61362071
:10237000FEF797FE40F207713720FEF792FE4FF40A
:1023800083713820FEF78DFE40F207713920FEF789
:1023900088FE40F202413C20FEF783FE40F60F41EA
:1023A0003D20FEF77EFE00215020FEF77AFEEF2151
:1023B0005120FEF776FE00215220FEF772FE40F219
:1023C0003F115320FEF76DFE4FF41C516020FEF7C5
:1023D00068FE01216120FEF764FE00216A20FEF7FD
:1023E00060FE00218020FEF75CFE00218120FEF7C8
:1023F00058FE00218220FEF754FE00218320FEF7C4
:1024000050FE00218420FEF74CFE00218520FEF7BF
:1024100048FE10219020FEF744FE4FF4C061922048
:10242000FEF73FFE40F233110720FEF73AFE85E447
:1024300089488088A0F5A84108397DD14FF4807182
:102440000120FEF72EFE4FF4E0610220FEF729FE88
:1024500041F230010320FEF724FE00210420FEF7A4
:1024600020FE40F207210820FEF71BFE0021092074
:10247000FEF717FE00210A20FEF713FE00210C20B4
:10248000FEF70FFE00210D20FEF70BFE00210F20AE
:10249000FEF707FE1420FEF768F841F2B061102045
:1024A000FEF7FFFD01211120FEF7FBFD01211720A2
:1024B000FEF7F7FD4FF49C711220FEF7F2FD4FF48A
:1024C00000611320FEF7EDFD09212920FEF7E9FD4B
:1024D00009212A20FEF7E5FD0021A420FEF7E1FDF9
:1024E00000215020FEF7DDFDEF215120FEF7D9FD40
:1024F00000215220FEF7D5FD40F23F115320FEF798
:10250000D0FD4FF41C516020FEF7CBFD012161206E
:10251000FEF7C7FD00216A20FEF7C3FD00218020E1
:10252000FEF7BFFD00218120FEF7BBFD00218220C8
:10253000FEF7B7FD002100E024E08320FEF7B1FDA7
:1025400000218420FEF7ADFD00218520FEF7A9FDC6
:1025500013219020FEF7A5FD00219220FEF7A1FD9A
:1025600003219320FEF79DFD4FF488719520FEF71F
:1025700098FD40F273110720FEF793FD3220FDF71E
:10258000F4FFB9E434488088A0F5A851053965D135
:102590000720FEF786FD3220FDF7E7FF4FF48E712E
:1025A0001220FEF77EFD0121A420FEF77AFD0F2107
:1025B0000820FEF776FD08210A20FEF772FD0821AB
:1025C0000D20FEF76EFD40F207713020FEF769FD29
:1025D00007213120FEF765FD40F203613220FEF74E
:1025E00060FD4FF4E0613320FEF75BFD40F2022115
:1025F0003420FEF756FD02213520FEF752FD41F64C
:102600000F713620FEF74DFD40F207713720FEF7BF
:1026100048FD00213820FEF744FD00213920FEF757
:1026200040FD40F207713A20FEF73BFD00213B20C0
:10263000FEF737FD07213C20FEF733FD00213D204A
:10264000FEF72FFD3220FDF790FF01210720FEF756
:1026500028FD0121172002E028020020AEE0FEF74D
:1026600020FD3220FDF781FF4FF4BD511020FEF711
:1026700018FD40F217211120FEF713FD4FF48F7162
:102680001220FEF70EFD4FF470611320FEF709FDD6
:1026900000212A20FEF705FD0A212920FEF701FD71
:1026A0004FF49F711220FEF7FCFC00215020FEF732
:1026B000F8FCEF215120FEF7F4FC00215220FEF738
:1026C000F0FC40F23F115320FEF7EBFC4FF41C519D
:1026D0006020FEF7E6FC01216120FEF7E2FC00210C
:1026E0006A20FEF7DEFC00218020FEF7DAFC0021E4
:1026F0008120FEF7D6FC00218220FEF7D2FC0021CB
:102700008320FEF7CEFC00218420FEF7CAFC0021C6
:102710008520FEF7C6FC13219020FEF7C2FC4FF483
:1027200040719220FEF7BDFC05219320FEF7B9FC15
:1027300000219520FEF7B5FC00219720FEF7B1FCA3
:1027400000219820FEF7ADFC4FF480710120FEF7C8
:10275000A8FC4FF4E0610220FEF7A3FC41F238012F
:102760000320FEF79EFC00210420FEF79AFC0021C6
:102770000C20FEF796FC00210F20FEF792FC0021B2
:102780002020FEF78EFC00212120FEF78AFC21216B
:102790000720FEF786FC1420FDF7E7FE61210720E5
:1027A000FEF77FFC1420FDF7E0FE40F273110720D6
:1027B000FEF777FC1420FDF7D8FE98E4FE488088E9
:1027C000A0F5354105397DD10846FEF76AFC0021A8
:1027D0000846FEF766FC00210846FEF762FC002171
:1027E0000846FEF75EFC0121A420FEF75AFC1420E7
:1027F000FDF7BBFE4FF41C516020FEF752FC40F287
:1028000002210820FEF74DFC4FF405713020FEF741
:1028100048FC43F215713120FEF743FC40F204619D
:102820003220FEF73EFC40F616613320FEF739FCFD
:1028300042F211213420FEF734FC4FF4A851352028
:10284000FEF72FFC48F207513620FEF72AFC41F232
:1028500007413720FEF725FC41F203413820FEF7FF
:1028600020FC20213920FEF71CFC1A219020FEF7C5
:1028700018FC00211020FEF714FC07211120FEF7A0
:1028800010FC00211220FEF70CFC00211320FEF7A3
:1028900008FC1420FDF769FE4FF4E6611020FEF7F6
:1028A00000FC40F237111120FEF7FBFB1420FDF76E
:1028B0005CFE4FF4DC711220FEF7F3FB1420FDF7F1
:1028C00054FE00E083E04FF470611320FEF7E9FB53
:1028D00080212A20FEF7E5FB48212920FEF7E1FBB5
:1028E0001420FDF742FE4FF480710120FEF7D9FB62
:1028F0004FF4E0610220FEF7D4FB41F238010320DF
:10290000FEF7CFFB40F202210820FEF7CAFB0021B0
:102910000A20FEF7C6FB00210C20FEF7C2FB0021B7
:102920000D20FEF7BEFB30210E20FEF7BAFB002182
:102930005020FEF7B6FBEF215120FEF7B2FB00213D
:102940005220FEF7AEFB40F23F115320FEF7A9FBE9
:102950004FF41C516020FEF7A4FB01216120FEF71B
:10296000A0FB00216A20FEF79CFB11219020FEF7BE
:1029700098FB4FF4C0619220FEF793FB40F20241B6
:102980009320FEF78EFB02219420FEF78AFB142091
:10299000FDF7EBFD01210720FEF783FB1420FDF777
:1029A000E4FD61210720FEF77CFB40F27311072054
:1029B000FEF777FB00212020FEF773FB002121208A
:1029C000FEF76FFB22210020FEF76BFB12E37A4833
:1029D0008088A0F5454105397DD10846FEF761FBA9
:1029E00000210846FEF75DFB1420FDF7BEFD002127
:1029F0000846FEF756FB00210846FEF752FB002171
:102A00000846FEF74EFB00210846FEF74AFB01216F
:102A1000A420FEF746FB1420FDF7A7FD4FF41C5140
:102A20006020FEF73EFB40F606010820FEF739FB6A
:102A300040F203713020FEF734FB01213120FEF714
:102A400030FB04213220FEF72CFB4FF48171332040
:102A5000FEF727FB4FF440713420FEF722FB40F2D3
:102A600003113520FEF71DFB1F213620FEF719FB51
:102A700040F203713720FEF714FB01213820FEF7E6
:102A800010FB04213920FEF70CFB15219020FEF7E6
:102A900008FB4FF482611020FEF703FB40F2472150
:102AA0001120FEF7FEFA4FF4DE711220FEF7F9FA5C
:102AB0004FF460611320FEF7F4FA7820FDF755FD1E
:102AC0004FF480710120FEF7ECFA4FF40071022000
:102AD000FEF7E7FA00E050E041F230010320FEF794
:102AE000E0FA08210A20FEF7DCFA00210C20FEF7AC
:102AF000D8FA20210E20FEF7D4FA00210F20FEF78D
:102B0000D0FA00212020FEF7CCFA00212120FEF788
:102B1000C8FA3D212A20FEF7C4FA1420FDF725FD4E
:102B20002D212920FEF7BDFA00215020FEF7B9FA29
:102B30004DF2EF015120FEF7B4FA00215220FEF7CA
:102B4000B0FA40F23F115320FEF7ABFA00216120AA
:102B5000FEF7A7FA00216A20FEF7A3FA4FF44071AE
:102B60009220FEF79EFA05219320FEF79AFA4FF481
:102B700080710720FEF795FA3CE20F488088A0F5A7
:102B8000094189397ED101210020FEF78AFA4AF6EF
:102B9000A4010320FEF785FA00210C20FEF781FA3C
:102BA00040F60C010D20FEF77CFA4FF42C510E205C
:102BB000FEF777FAB02101E0280200201E20FEF780
:102BC00070FA42F63F310120FEF76BFA4FF4C06114
:102BD0000220FEF766FA00211020FEF762FA46F2A4
:102BE00078011120FEF75DFA00210520FEF759FA61
:102BF00000210620FEF755FA4EF61C711620FEF74E
:102C000050FA03211720FEF74CFA40F23321072037
:102C1000FEF747FA00210B20FEF743FA00210F20B0
:102C2000FEF73FFA00214120FEF73BFA0021422047
:102C3000FEF737FA00214820FEF733FA40F23F1141
:102C40004920FEF72EFA00214A20FEF72AFA002139
:102C50004B20FEF726FA4FF46F414420FEF721FA8D
:102C600000214520FEF71DFA40F23F114620FEF7F5
:102C700018FA40F207713020FEF713FA4FF4017191
:102C8000312000E03FE0FEF70CFA4FF401713220F2
:102C9000FEF707FA40F202513320FEF702FA40F243
:102CA00007513420FEF7FDF94FF401713520FEF78E
:102CB000F8F94FF401713620FEF7F3F940F20251B2
:102CC0003720FEF7EEF940F202313A20FEF7E9F93B
:102CD00040F202313B20FEF7E4F900212320FEF709
:102CE000E0F900212420FEF7DCF94FF40041252013
:102CF000FEF7D7F900214F20FEF7D3F900214E202F
:102D0000FEF7CFF976E1F7488088A0F58A4131399E
:102D10007ED101210020FEF7C4F90A20FDF725FC31
:102D200041F228611020FEF7BCF90E211220FEF7B7
:102D3000B8F940F639211320FEF7B3F90A20FDF760
:102D400014FC40211120FEF7ACF950211520FEF7AC
:102D5000A8F90A20FDF709FC1E211220FEF7A1F9AF
:102D60000A20FDF702FC4FF4B1511020FEF799F94B
:102D700042F639211320FEF794F90A20FDF7F5FBFE
:102D80004FF480710120FEF78CF94FF4407102205E
:102D9000FEF787F941F238010320FEF782F940F28D
:102DA00002210820FEF77DF908210A20FEF779F9B3
:102DB00000213020FEF775F940F202413120FEF784
:102DC00070F94FF483713220FEF76BF940F2035132
:102DD0003320FEF766F94FF482713420FEF761F973
:102DE00040F201313520FEF75CF940F207713620E0
:102DF000FEF757F940F205313720FEF752F94FF44C
:102E000002713820FEF74DF940F60B71392000E0D1
:102E10003BE0FEF746F902214120FEF742F94FF46C
:102E20001C516020FEF73DF901216120FEF739F9C0
:102E30004FF404719020FEF734F94FF4857192201D
:102E4000FEF72FF904219320FEF72BF94FF4807140
:102E5000A020FEF726F901210720FEF722F9212103
:102E60000720FEF71EF923210720FEF71AF9332168
:102E70000720FEF716F940F233110720FEF711F98B
:102E80000021A020FEF70DF9B4E096488088A0F557
:102E90008A413539F8D130211520FEF702F9102189
:102EA0009A20FEF7FEF820211120FEF7FAF843F2EF
:102EB00028411020FEF7F5F802211220FEF7F1F864
:102EC00041F238011320FEF7ECF82820FDF74DFB06
:102ED00012210846FEF7E5F82820FDF746FB43F2ED
:102EE00020411020FEF7DDF843F238011320FEF7F1
:102EF000D8F84620FDF739FB00213020FEF7D1F845
:102F000040F202413120FEF7CCF840F20731322086
:102F1000FEF7C7F84FF441713320FEF7C2F80421E1
:102F20003420FEF7BEF840F201413520FEF7B9F833
:102F300040F207713620FEF7B4F840F20531372031
:102F4000FEF7AFF84FF4C2613820FEF7AAF84FF44D
:102F5000C2613920FEF7A5F84FF480710120FEF719
:102F6000A0F84FF440710220FEF79BF841F23001C7
:102F70000320FEF796F840F608010820FEF791F8C6
:102F800008210A20FEF78DF84FF41C516020FEF74F
:102F900088F801216120FEF784F84FF49F7190209A
:102FA000FEF77FF84FF480719220FEF77AF84FF425
:102FB00080719320FEF775F84FF44051A020FEF782
:102FC00070F81021A320FEF76CF801210720FEF70E
:102FD00068F821210720FEF764F823210720FEF777
:102FE00060F833210720FEF75CF840F23311072028
:102FF000FEF757F80020FEF7E7FA01203A4908608B
:103000004FF6FF70FEF765FB10BD2DE9FC4F05463E
:103010000E4617469846DDF82C9000200190314866
:103020008088A0F5D041043929D12E488079012823
:1030300025D1AB4635462B480088C01B401E86B2C2
:10304000474628480088A0EB0B00401E1FFA80F876
:103050000020244988712A2008722B204872434698
:103060003A4631462846CDF80090FFF7CEFF0120C2
:103070001C4988712B2008722A2048721CE0781B9A
:10308000401C80B20190344614E021462846FEF7E9
:1030900035F8FEF716F84FF0000A06E04846FDF74F
:1030A000F8FF0AF101001FFA80FA01988245F5DB6A
:1030B000601C84B24445E8DDBDE8FC8F2DE9F84F83
:1030C00007460D4690469946DDF828B0A8EB070064
:1030D000401C80B20090A9EB0500401C1FFA80FA4A
:1030E000002419E02802002080812142281981B2A1
:1030F0003846FEF703F8FDF7E4FF002607E004FB7F
:103100000A603BF81000FE490880701C86B20098E7
:103110008642F4DB601C84B25445E7DBBDE8F88FDF
:103120002DE9FF4F84B081468A460020039002902B
:103130000698A0EB09050798A0EB0A06CDF80490C5
:10314000CDF800A0002D01DD012705E00DB9002715
:1031500002E04FF0FF376D42002E02DD4FF0010814
:1031600006E016B94FF0000802E04FF0FF38764253
:10317000B54201DD2C4600E034464FF0000B21E063
:10318000009A91B2019A90B2FEF7B2F903982844DE
:1031900003900298304402900398A04205DD039802
:1031A000001B03900198384401900298A04205DD6D
:1031B0000298001B02900098404400900BF101001F
:1031C0001FFA80FB601C8345DADD08B0BDE8F08F94
:1031D000F0B504460D4616461F462B463246294694
:1031E0002046FFF79DFF3B46224629462046FFF733
:1031F00097FF3B46324639462046FFF791FF3B4654
:10320000324629463046FFF78BFFF0BD2DE9F043EB
:1032100006460F469046002445460320A0EB480989
:103220003CE07A1B91B2321990B2FEF761F93A1B79
:1032300091B2721990B2FEF75BF93A1991B2721914
:1032400090B2FEF755F97A1991B2321990B2FEF7A1
:103250004FF97A1991B2321B90B2FEF749F93A1937
:1032600091B2721B90B2FEF743F97A1B91B2321BF6
:1032700090B2FEF73DF93A1B91B2721B90B2FEF785
:1032800037F9641CB9F1000F03DAA000801D8144F6
:1032900004E0601B80000A3081446D1EAC42C0DD3A
:1032A000BDE8F0832DE9F84F05460F4690461E46CF
:1032B00000979448B0F80090A8F1200000F0FF08B3
:1032C0000A9800284ED1002449E00C2E07D108EBC3
:1032D00048008D4901EB800010F804A004E08B4801
:1032E00000EB081010F804A04FF0000B31E01AF0CA
:1032F000800F03D08348A0F8009003E08448008842
:103300008049088039462846FEF7F2F84FEA4A60BD
:103310004FEA106A781C87B27E480088A84204DC15
:103320007848A0F80090BDE8F88F0098381AB042AD
:103330000BD1009F681C85B276480088A84203DC48
:103340007048A0F80090EEE706E00BF1010000F0F5
:10335000FF0BBBF1080FCADB00BF601CC4B2B44254
:10336000B3DB44E0002440E00C2E07D108EB48001A
:10337000654901EB800010F804A004E0634800EB0D
:10338000081010F804A04FF0000B28E01AF0800F8E
:1033900003D039462846FEF7ABF84FEA4A604FEAB9
:1033A000106A781C87B25B484088A84203DC554805
:1033B000A0F80090B7E70098381AB0420BD1009FF0
:1033C000681C85B253480088A84203DC4D48A0F829
:1033D0000090A8E706E00BF1010000F0FF0BBBF145
:1033E000080FD3DB00BF601CC4B2B442BCDB45484D
:1033F000A0F8009000BF96E710B50246012000E05B
:1034000050430B00A1F10104E1B2F9D110BD2DE947
:10341000FF4F81B0074691461E460E9D4FF0000AB1
:10342000002439E0301B401EC1B20A20FFF7E4FF40
:10343000B9FBF0F00A21B0FBF1F201FB1208BAF17E
:10344000000F16D1701EA04213DDB8F1000F0ED18F
:103450000020AB4605EBDB71491001FB04710090C5
:1034600088B22B4620220299FFF71CFF12E04FF092
:10347000010A0020AB4605EBDB71491001FB04712A
:10348000009088B208F13001CAB22B460299FFF7CA
:1034900009FF00BF601CC4B2B442C3DB05B0BDE885
:1034A000F08F2DE9FF4F82B0064692461F46DDE9B8
:1034B0000F480020019000255BE0781B401EC1B240
:1034C0000A20FFF799FFBAFBF0F00A21B0FBF1F2F6
:1034D00001FB12090198A8BB781EA84235DDB9F19D
:1034E000000F30D118F0800F1CD008F00100A34667
:1034F00004EBDB71491001FB0561009088B20BE021
:103500000008006C120000205E600008D264000811
:103510001400002028020020234630220399FFF7E0
:10352000C1FE0EE008F00100A34604EBDB71491078
:1035300001FB0561009088B2234620220399FFF722
:10354000B1FE14E001E00120019008F00100A34663
:1035500004EBDB71491001FB0561009088B209F1B1
:103560003001CAB223460399FFF79CFE00BF681CD6
:10357000C5B2BD42A1DB06B0BDE8F08F2DE9F8472A
:1035800004460D4690469946DDE9096704F0FF0AB6
:1035900008EB04001FFA80F809EB05001FFA80F918
:1035A00016E0444502DB5446A81985B24D4500DBC0
:1035B00014E0002000903A78334629462046FFF771
:1035C00071FE304606EBD07104EB61018CB27F1CBA
:1035D00038787E2802DC38782028E2DA00BFBDE89F
:1035E000F8870000F0B503460C461546642093FBAF
:1035F000F0F0C6B2642093FBF0F700FB1730C1B2C5
:10360000132E02DD01F16400C1B20846CF1701EBB1
:10361000977701EBA707BAB2072092FBF0F700FB00
:10362000172082B25719601EDFF81CC41CF8000076
:10363000384482B2CF1701EB9777BF10B1EB870701
:1036400003D1032C01DA501E82B2072092FBF0F75F
:1036500000FB1720C0B2F0BD0146CA1701EB927201
:103660009210B1EB820212D1642091FBF0F200FBC8
:10367000121050B94FF4C87091FBF0F200FB121019
:1036800008B9012070470020FCE70120FAE700207C
:10369000F8E770B5002600240025EC4806883604BB
:1036A000001D00880644EA48B6FBF0F4E9480088AB
:1036B000A0423CD0E7490C8040F2B27510E02846A9
:1036C000FFF7CAFF40B1B4F5B77F02D3A4F5B774D2
:1036D00004E0681C85B206E0A4F26D14681C85B293
:1036E000B4F5B67FEBD800BFDB488580002516E037
:1036F000D9498888FFF7B0FF30B1012D04D11D2CC6
:1037000001D31D3C09E00CE0D448405DA04203D841
:10371000D248405D241A00E003E0681C85B21C2CEE
:10372000E6D200BF681CCC498871601CC871C848CB
:10373000B6FBF0F100FB11644FF46160B4FBF0F0F4
:10374000C54908704FF46160B4FBF0F100FB114013
:103750003C21B0FBF1F0C04948704FF46160B4FB0C
:10376000F0F100FB11403C21B0FBF1F201FB120033
:10377000B94988700B46DA7999799888FFF732FF52
:10378000B5490872002070BD2DE9F04F06460F467E
:1037900090469946DDE909AB002440F2B2708642BA
:1037A00003DB40F63300864202DD0120BDE8F08FE6
:1037B00040F2B2750AE02846FFF74EFF10B1A84864
:1037C000044401E0A7480444681C85B2B542F2DB1A
:1037D000781EC7B2002510E0A048405D40F2A3214A
:1037E000484304EBC0143046FFF736FF18B1012DF3
:1037F00001D197480444681C85B2BD42ECDBA8F1B6
:10380000010040F2A321484304EBC014C9EB491066
:10381000C0EB092004EB0014CAEB0A1004EB80048F
:103820005C449148C06940F080508F49C8610846A7
:10383000C06940F00060C8618C48006840F4807046
:103840008A49086081481438008840F010007F4998
:10385000143908807D49091D0C80200C091F08803F
:103860007A481438008820F010007849143908800C
:1038700000BF76481438008810F0200FF9D0FFF709
:1038800008FF002092E71CB5002479480088A0F5C5
:10389000A04150397ED07448C06940F080507249D0
:1038A000C8610846C06940F00060C8616F480068A0
:1038B00040F480706D4908606B48006A40F48030C5
:1038C000694908620846006A20F4803008620846A8
:1038D000006A40F00100086204E0601CC4B20A20E3
:1038E000FCF743FE6048006A10F0020F01D1FA2C89
:1038F000F3DBFA2C01DB01201CBD5B48006A40F4BD
:103900008070594908620846006A40F40040086225
:1039100000BF4E481438008810F0200FF9D000BFC7
:103920004A481438008810F0080FF9D04748183872
:10393000008840F0010045491839088000BF43481D
:103940001438008810F0200FF9D04048143800884F
:1039500040F010003D49143908800020091D0880FE
:1039600047F6FF70091D0880372010210D2307221C
:10397000CDE90010092140F2DC70FFF705FF334864
:103980001438008820F0100030491439088000BF36
:103990002E4800E00CE01438008810F0200FF7D01B
:1039A00045F250003249088032A001F041FC18E095
:1039B00000BF26481438008810F0080FF9D02348BB
:1039C0001838008840F0010020491839088000BFED
:1039D0001E481438008810F0200FF9D028A001F0FC
:1039E00027FC0223032200210846FCF7F5FDFFF720
:1039F00050FE002080E700B514481438008810F00D
:103A0000010F01D0FFF745FE10481438008810F070
:103A1000020F07D00D481438008820F002000B492F
:103A20001439088009481438008840F6FA710840B3
:103A300006491439088000BF04481438008810F083
:103A4000200FF9D000BD0000C26A0008182800400D
:103A5000805101001600002032020020CE6A0008CA
:103A60000085E2018033E101001002400070004057
:103A7000046C004046495253542054494D450A00B5
:103A80004F4B0A0010B52F48C06840F4FE702D4916
:103A9000C860FCF765FE10BD70B50025002400204D
:103AA000294908601BE02948006818B1681CC5B2A4
:103AB000002409E0601CC4B2032C05DD012022496A
:103AC00008604FF0000070BD1E20FCF74EFD642D15
:103AD00005DB00201C4908604FF00100F3E7E2E736
:103AE00010B501201A490860FFF7D6FF08B1FFF7AB
:103AF000C9FF10BD10B51348806940F0040011499A
:103B000088610846806940F00100886111480068BA
:103B100020F00F000F4908600846006840F00800D8
:103B20000860022200210846FCF7A4FDFFF7B4FF5D
:103B300008B9FCF715FE0223062219461846FCF7C1
:103B40004BFD10BD00100240948121420001214232
:103B500014040140000801402C48806940F0040032
:103B60002A4988610846C06940F00050C861284869
:103B7000006820F470202649086008460068086044
:103B80002448006840F001002249086008460068A7
:103B900040F00200086008460068086008460068B7
:103BA0000860084600680860084600680860084623
:103BB00000680860002017490831086070472DE947
:103BC000F0470446204602F0EBF881461249484689
:103BD00002F004F881464FF08B41484602F0F4F8B9
:103BE000824601F06DFF07464FF066320B4B01F045
:103BF000BBFD054601F086FD8146484602F0B0F85F
:103C0000044908310860BDE8F08700000010024058
:103C1000000801400074004000007A4466660A40D3
:103C20009748806940F00800954988619548006888
:103C300020F47F40934908600846006840F44C50E7
:103C4000086090480830006840F440608D490831B1
:103C50000860704710B58B48006820F470408949AF
:103C600008600846006840F440500860012086491A
:103C700008608649C1F8A8014FF00400FCF75AFC1F
:103C80000020814908604FF00400FCF753FC00203D
:103C90007E49C1F8A80110BD10B57A48006820F42B
:103CA0007040784908600846006840F44050086059
:103CB0000020774908607549C1F8AC014FF0040055
:103CC000FCF738FC0120724908607049C1F8AC016A
:103CD0004FF00400FCF72EFC10BD10B5002469481D
:103CE000006820F47040674908600846006840F4A6
:103CF00000400860012064490860FCF71BFC0120BB
:103D00006249C1F8A801FCF715FC07E0601CC4B2C9
:103D1000FA2C03DDFFF7C0FF012010BD5D480068ED
:103D20000028F3D15A49086000BFF6E710B500201B
:103D3000574908605348006820F4704051490860B2
:103D40000846006840F4405008604FF000004F49BA
:103D5000C1F8AC014FF00200FCF7ECFB01204C492C
:103D600008604FF00200FCF7E5FB00204749C1F86E
:103D7000A80110BD10B50020454908604148006801
:103D800020F470403F4908600846006840F4405005
:103D900008604FF001003D49C1F8AC014FF002004E
:103DA000FCF7C8FB01203A4908604FF00200FCF71D
:103DB000C1FB00203549C1F8A80110BD70B504460B
:103DC0003048006820F470402E49086008460068BA
:103DD00040F44050086000202D49086005461AE074
:103DE000E009294908604FEA44604FEA10644FF047
:103DF0000200FCF79FFB01202449C1F8A801022022
:103E0000FCF798FB0020224908604FF00200FCF705
:103E100091FB681CC5B2082DE2DB70BD70B505468C
:103E200000241848006820F47040164908600846CD
:103E3000006840F400400860002616E000201449A5
:103E400008604FF00200FCF775FB01200F49C1F834
:103E5000A8016006040E0F48006808B1601CC4B2D7
:103E60000120FCF767FB701CC6B2082EE6DB15B913
:103E7000FFF780FF01E0FFF759FF204670BD00000B
:103E800000100240040C0140AC812142008021421C
:103E9000A88121422C81214210B5FFF7C1FE10BD3F
:103EA00070B504460026FFF7D5FE2546E11704EB62
:103EB00011610912A02202EB4101C8B2FFF77EFF97
:103EC000FFF70BFFE11704EB11610912A4EB0121CD
:103ED000C8B2FFF773FFFFF700FFFFF7BBFEA1209B
:103EE000FFF76CFFFFF7F9FE0020FFF797FF06468C
:103EF000FFF7D2FE304670BD70B504460E46FFF7A0
:103F0000A9FE2546E11704EB11610912A02202EB7C
:103F10004101C8B2FFF752FFFFF7DFFEE11704EBE4
:103F200011610912A4EB0121C8B2FFF747FFFFF7A7
:103F3000D4FE3046FFF742FFFFF7CFFEFFF7ACFE9F
:103F40000A20FCF712FB70BD2DE9F04105460E4634
:103F50001746002409E0E20026FA02F2D1B22A193B
:103F600090B2FFF7C9FF601CC4B2BC42F3DBBDE8EE
:103F7000F0812DE9F04107460C460026002509E0B6
:103F800036023919491B491E88B2FFF789FF0644DA
:103F9000681CC5B2A542F3DB3046BDE8F08110B520
:103FA000FF20FFF77DFF0446552C01D1002010BDF6
:103FB0005521FF20FFF7A0FFFF20FFF771FF044608
:103FC000552C01D10020F2E70120F0E770B506463C
:103FD0000C46154608E03046721C96B2FFF760FFAB
:103FE00004F8010B681E85B2002DF4D170BD70B5C8
:103FF00005460C46164606E021782846FFF77CFF6A
:10400000681C85B2641C3000A6F101018EB2F3D1A8
:1040100070BD00001CB57748008810F0200F25D037
:104020007448001D0088C4B27348007840281DDA27
:1040300072487149097844546F480078401C6E49B1
:10404000087080201021CDE900106C496A4B1B7864
:10405000CA5C6949097801EB410303EBC1011E23E6
:1040600003EB41000323E621FFF71BFA1CBD2DE9FA
:10407000F05F05460E46300101F092FE8146604930
:1040800005FB01F001F08CFE8246494601F0A6FDD9
:104090000746384601F064FE84B2204601F080FEF7
:1040A0008346394601F05CFF82464FF0834101F0C0
:1040B0008BFE814601F054FE80464FF6FF7000EA09
:1040C000041404EB080084B24E48806940F4807008
:1040D0004C4988614C48406820F0F0004A494860EB
:1040E0000846406840F0300048604648806940F02B
:1040F0000400444988614548006820F47F404349F2
:1041000008600846006840F40B4008603D48C069FC
:1041100040F400303B49C8610846006940F4003073
:1041200008610846006920F4003008613148083011
:104130000480001D008842F20C0108432D490C3117
:1041400008800846008840F480700880084600888F
:1041500040F0200008800223262203210846FCF7B5
:104160003BFA00202A490860BDE8F09F10B50246DE
:104170000123274C23604FF000000BE000BF1D4BD4
:104180001B8813F0400FFAD0135C1A4C241D2380B7
:10419000431CD8B28842F1DB00BF164B1B8813F0DA
:1041A000400FFAD00023144C2370194C236010BD2B
:1041B0002DE9F04107460D460F48067800240020FF
:1041C00028700A20FCF7D1F90B48007886420FD1FD
:1041D00076B100BF04E00948005D3855601CC4B2E8
:1041E000B442F8DB044800782870002002490870C7
:1041F000BDE8F08100440040180000203C0200208F
:1042000040420F0000100240002001400008014021
:10421000A401244210B58CB004461E230BAA03A9A6
:10422000204600F00DFE0090009810B101200CB067
:1042300010BD9DF82C00044400200B900EE05E4859
:104240009DF82C2050F8221003A800F061FD00B961
:1042500008E09DF82C00401CC0B20B909DF82C008B
:104260000828ECDB00BF9DF82C00072879D2DFE896
:1042700000F00405395B8BA2A10000BF4FA000F045
:10428000D7FF4FA000F0D4FF5DA000F0D1FF6CA0DD
:1042900000F0CEFF7AA000F0CBFF89A000F0C8FFAD
:1042A00097A000F0C5FFA4A000F0C2FFA9A000F0F5
:1042B000BFFFAEA000F0BCFFB2A000F0B9FFB7A0F6
:1042C00000F0B6FFBBA000F0B3FFC1A000F0B0FF4C
:1042D000CCA000F0ADFFD8A000F0AAFFE3A000F052
:1042E000A7FFA5E235A000F0A3FFF0A000F0A0FF1B
:1042F00000200B900EE0FD4800689DF82C2000EB9C
:10430000C2004168FAA000F093FF9DF82C00401C09
:10431000C0B20B90F548007D9DF82C108842EADC75
:1043200026A000F085FF83E224A000F081FFF2A028
:1043300000F07EFF00200B901CE0EC4909689DF81E
:104340002C2001EBC20101AB02AA486803A900F0CE
:104350009DFDE64800689DF82C1050F8312003A917
:1043600000E063E2F4A000F063FF9DF82C00401C25
:10437000C0B20B90DD48007D9DF82C108842DCDC3B
:104380000EA000F055FF53E20CA000F051FF0BAA65
:1043900003A9204600F056FE9DF82C0040B969465E
:1043A00003A800F0E8FC0B909DF82C0008B9CDE1C3
:1043B000DEE1D0E10DE2E1E11C0000200D0A000089
:1043C0002D2D2D2D2D2D2D2D2D2D2D2D2D2D2D2D1D
:1043D0002D2D2D2D2D2D2D2D55534D415254205623
:1043E000322E382D2D2D2D2D2D2D2D2D2D2D2D2DEC
:1043F0002D2D2D2D2D2D2D2D2D2D2D200D0A000097
:104400002020202055534D415254CAC7D3C9414C96
:1044100049454E54454BBFAAB7A2B5C4D2BBB8F666
:10442000C1E9C7C9B5C4B4AEBFDAB5F7CAD4BBA534
:10443000BDBBD7E9BCFE2CCDA8B9FD200D0A0000FC
:10444000CBFC2CC4E3BFC9D2D4CDA8B9FDB4AEBF58
:10445000DAD6FACAD6B5F7D3C3B3CCD0F2C0EFC31D
:10446000E6B5C4C8CEBACEBAAFCAFD2CB2A2D6B495
:10447000D0D02ED2F2B4CB2CC4E3BFC90D0A0000B9
:10448000D2D4CBE6D2E2B8FCB8C4BAAFCAFDB5C448
:10449000CAE4C8EBB2CECAFD28D6A7B3D6CAFDD7A8
:1044A000D62831302F3136BDF8D6C629A1A2D7D6AD
:1044B000B7FBB4AEA1A2BAAFCAFDC8EB0D0A0000AB
:1044C000BFDAB5D8D6B7B5C8D7F7CEAAB2CECAFD2F
:1044D000292CB5A5B8F6BAAFCAFDD7EEB6E0D6A777
:1044E000B3D63130B8F6CAE4C8EBB2CECAFD2CB2AE
:1044F000A2D6A7B3D6BAAFCAFDB7B5200D0A000041
:10450000BBD8D6B5CFD4CABE2ED0C2D4F6B2CECA8E
:10451000FDCFD4CABEBDF8D6C6C9E8D6C3B9A6C4B5
:10452000DC2CD0C2D4F6BDF8D6C6D7AABBBBB9A680
:10453000C4DC2E0D0A000000BCBCCAF5D6A7B3D659
:104540003A7777772E6F70656E6564762E636F6D40
:104550000D0A000055534D415254D3D036B8F6CF12
:10456000B5CDB3C3FCC1EE3A0D0A00003F3A20209E
:104570002020BBF1C8A1B0EFD6FAD0C5CFA20D0A5A
:104580000000000068656C703A20BBF1C8A1B0EF74
:10459000D6FAD0C5CFA20D0A000000006C69737472
:1045A0003A20BFC9D3C3B5C4BAAFCAFDC1D0B1EDBB
:1045B0000D0A0A0069643A202020BFC9D3C3BAAFEC
:1045C000CAFDB5C44944C1D0B1ED0D0A0A000000CE
:1045D0006865783A2020B2CECAFD3136BDF8D6C61D
:1045E000CFD4CABE2CBAF3B8FABFD5B8F12BCAFDE6
:1045F000D7D6BCB4D6B4D0D0BDF8D6C6D7AABBBB2C
:104600000D0A0A006465633A2020B2CECAFD31303B
:10461000BDF8D6C6CFD4CABE2CBAF3B8FABFD5B847
:10462000F12BCAFDD7D6BCB4D6B4D0D0BDF8D6C60F
:10463000D7AABBBB0D0A0A00C7EBB0B4D5D5B3CC23
:10464000D0F2B1E0D0B4B8F1CABDCAE4C8EBBAAF99
:10465000CAFDC3FBBCB0B2CECAFDB2A2D2D4BBD895
:10466000B3B5BCFCBDE1CAF82E0D0A002D2D2D2DD1
:104670002D2D2D2D2D2D2D2D2D2D2D2D2D2D2D2D6A
:104680002D2D2D2D2D2D414C49454E54454B2D2D75
:104690002D2D2D2D2D2D2D2D2D2D2D2D2D2D2D2D4A
:1046A0002D2D2D2D2D2D2D200D0A00002D2D2D2DE4
:1046B0002D2D2D2D2D2D2D2D2D2D2D2D2D2D2D2D2A
:1046C0002D2D2D2D2DBAAFCAFDC7E5B5A52D2D2D4C
:1046D0002D2D2D2D2D2D2D2D2D2D2D2D2D2D2D2D0A
:1046E0002D2D2D2D2D2D2D2D200D0A007400002097
:1046F00025730D0A000000002D2D2D2D2D2D2D2DA3
:104700002D2D2D2D2D2D2D2D2D2D2D2D2D2D2D2DD9
:104710002DBAAFCAFD204944202D2D2D2D2D2D2D34
:104720002D2D2D2D2D2D2D2D2D2D2D2D2D2D2D2DB9
:104730002D2D2D2D200D0A0025732069642069730D
:104740003A0D0A3058253038580D0A00F6A0009965
:1047500000F06EFD0EE09DF82C00042801D0022030
:1047600065E5F4A000F064FD0120F749C87501E09B
:1047700002205CE5EEA000F05BFD59E0ECA000F04B
:1047800057FD0BAA03A9204600F05CFC9DF82C0005
:10479000C8B9694603A800F0EEFA0B909DF82C000A
:1047A00020B9EAA0009900F043FD0EE09DF82C002E
:1047B000042801D002203AE5E7A000F039FD0020EE
:1047C000E149C87501E0022031E5D9A000F030FDD3
:1047D0002EE0D7A000F02CFD0BAA03A9204600F084
:1047E00031FC9DF82C00D8B9694603A800F0C3FA43
:1047F0000B909DF82C0088B9D348C07D012806D1C4
:10480000009801460268D9A000F012FD0AE0009865
:1048100001460268D9A000F00BFD03E0022006E586
:10482000022004E5C2A000F003FD01E00120FEE447
:1048300000BF0020FBE410B54FF08040008A10F06C
:10484000010F02D0C049086980474FF08040008ABC
:1048500020F001004FF08041088210BD70B5054680
:104860000C46C948C06940F00100C749C8618804C6
:1048700085850485808940F0010089048881084687
:10488000808940F0400088810846008840F001009F
:10489000088002231C2203210846FBF79DFE70BD01
:1048A00010B5044604EBC40000EB04100122C2EB77
:1048B000800081B24FF47A70FFF7D0FF0120A24947
:1048C000C87510BD30B595B0054613AB12AA09A93D
:1048D000284600F0DBFA044614B1204615B030BD7E
:1048E0000020149026E0984909689DF8502001EBBB
:1048F000C20113AB11AA486801A900F0C7FA044627
:104900000CB12046EAE709A901A800F001FA60B954
:104910009DF844009DF84810884201DD0220DDE743
:104920009DF85000884988750AE09DF85000401CA9
:10493000C0B214908448007D9DF850108842D2DCAB
:1049400000BF8148007D9DF85010884201D10420AD
:10495000C4E714A9284600F0E0FB04460CB1204649
:10496000BCE79DF85000784948750020B6E7F0B5DF
:104970009BB07548847D007DA04201DC1BB0F0BD7A
:104980007149096801EBC40107AB08AA486809A985
:1049900000F07CFA09A97DA000F04AFC002644E062
:1049A0006948018B0120B04001421BD0222179A02F
:1049B00000F03EFC304600F0A3FB63492431471869
:1049C000394675A000F034FC222172A000F030FCC2
:1049D000304600F095FB5C492431084411A941F8A8
:1049E000260018E0304600F08BFB57492431085868
:1049F00011A941F826005448C07D30B911A850F8DB
:104A0000261066A000F014FC05E011A850F826104E
:104A100063A000F00DFC9DF82000401EB04202D0C3
:104A200061A000F005FC701CC6B29DF82000864213
:104A3000B6DB5EA000F0FCFB4348407D0B280DD2A6
:104A4000DFE800F0060D151E27323F4E5FB6CB00A3
:104A50003D49096851F8340080470546D4E03A4A98
:104A6000126852F83410119888470546CCE0364B4E
:104A70001B6853F83420DDE9110190470546C3E077
:104A8000314F3F6857F8343011A807C8984705469A
:104A9000BAE0DFF8B4C0DCF800C05CF8347011A8EC
:104AA0000FC8B8470546AFE01598DFF89CC00090E6
:104AB000DCF800C05CF8347011A80FC8B847054690
:104AC000A2E0DDE91501DFF880C0CDE90001DCF8E6
:104AD00000C05CF8347011A80FC8B847054693E0D1
:104AE000DDE915121798DFF860C0CDE900120290D9
:104AF000DCF800C05CF8347011A80FC8B847054650
:104B000082E0DDE91523DDE91710DFF83CC0CDE9CF
:104B10000023CDE90210DCF800C05CF8347011A865
:104B20000FC8B84705466FE04845583A30582558F1
:104B30000D0A00003136BDF8D6C6B2CECAFDCFD4BC
:104B4000CABE210D0A000000740000204445433A0B
:104B5000256C750D0A0000003130BDF8D6C6B2CE06
:104B6000CAFDCFD4CABE210D0A0000002A28305841
:104B70002558293D305825580D0A00002A2825645B
:104B8000293D25640D0A0000001002400D0A25731E
:104B9000280000002563000025730000256C7500C7
:104BA00030582558000000002C00000029000000AB
:104BB000DDE91623DDE91810CDE90123CDE9031065
:104BC0001598DFF8F4C00090DCF800C05CF8347091
:104BD00011A80FC8B847054616E0DDE91832179945
:104BE0001A98CDE9033202910590DDE91501DFF84D
:104BF000C8C0CDE90001DCF800C05CF8347011A831
:104C00000FC8B847054600BF00BF9DF81C0001282B
:104C10000CD12948C07D20B9294628A000F008FB06
:104C200007E0294627A000F003FB02E024A000F0E3
:104C3000FFFA00BFA2E670B52548008810F4004FC7
:104C400033D0234805780020224948551A48816806
:104C50002048884704461CB91749C868804721E0A6
:104C60001C48FFF7D7FA0546012D00D02C46CCB1E1
:104C7000012C06D0022C08D0032C0AD0042C10D111
:104C80000BE015A000F0D4FA0BE016A000F0D0FA6B
:104C900007E017A000F0CCFA03E018A000F0C8FA73
:104CA00000BF00BF00200A49088070BD01460868A7
:104CB0007047016070470000740000203D256C754E
:104CC0003B0D0A003D305825583B0D0A00000000FE
:104CD0000400002060010020BAAFCAFDB4EDCEF39D
:104CE000210D0A00B2CECAFDB4EDCEF3210D0A00AB
:104CF000B2CECAFDCCABB6E0210D0A00CEB4D5D2FF
:104D0000B5BDC6A5C5E4B5C4BAAFCAFD210D0A003C
:104D100002460AE010780B78984201D001207047D3
:104D2000107800B902E0521C491CF3E700BF0020D4
:104D3000F5E706E002780A70027802B902E0401C4A
:104D4000491CF7E700BF70470146002005E00A78DC
:104D500002B903E0421CD0B2491CF8E700BF70471B
:104D600010B50246012000E050430B00A1F1010400
:104D7000E1B2F9D110BD2DE9F04307460E460025FA
:104D80004FF00A083C46002030601FE020783928A8
:104D900002DC207830280ADA2078462802DC2078E5
:104DA000412804DA2078582809D1012D07D120782C
:104DB000412801DB4FF01008681CC5B205E02078DF
:104DC00000B904E00120BDE8F083641CDEE700BF09
:104DD0003C46B8F1100F0FD1032D01DA0220F2E7A3
:104DE0002078302806D16078582803D1A41CA81E4A
:104DF000C5B204E00320E6E70DB90420E3E71BE0B9
:104E00000DB1681EC5B22078392806DC207830281C
:104E100003DB2078A0F1300902E02078A0F1370907
:104E200029464046FFF79CFF316809FB00103060BF
:104E3000641C207800B900E0E2E700BF0020C2E770
:104E400010B50446002010700BE020780870641C38
:104E5000491C1078401C10701078984201DB01202A
:104E600010BD2078202802D020780028EDD1002025
:104E7000087000BFF4E70146491C00E0491C0878AF
:104E8000202801D10029F9D1087870472DE9FF4F7A
:104E900085B08046894600270020049003900120B9
:104EA00002904FF0000B002544461DE0207820289A
:104EB00016D005F07F00052812DA0DB945F08005FF
:104EC00005F07F00042803D120782A2800D00EE0C6
:104ED000207805F07F010DF80100681CC5B202E0E2
:104EE000852D00D103E0641C20780028DED100BFAE
:104EF0008DB1002005F07F010DF80100C8A16846C2
:104F0000FFF706FF18B900210898017002E001219F
:104F10000898017000254FF0000A444614E0641C14
:104F20000AF1010000F0FF0A2078202802D0207842
:104F30002A2809D12046FFF79EFF0646282E03D0D7
:104F40002A2E01D0CDF810A02078282802D0207871
:104F50000028E4D14446049810B10498401C04444D
:104F60004FF0000A002654E0207810B94FF0010AF3
:104F700050E02078282803D116B9781CC7B213E076
:104F80002078292808D13EB917B1781EC7B201E0B0
:104F90004FF0010A47B93DE02078222804D10EB92C
:104FA000012000E00020064647B9207820282FD0B5
:104FB000207889F8000009F1010929E020782C28DF
:104FC00004D101200290681CC5B214E0207820288A
:104FD00011D0207828280ED04DB9BBF1050F06DA84
:104FE00020780DF80B000BF1010000F0FF0B029888
:104FF000401CC0B20290012F0AD10298022807D1AA
:105000000298401CC0B202900398401CC0B20390AA
:10501000641CA9E700BF0398012809D100200DF8FE
:105020000B007FA16846FFF773FE08B900200390CC
:10503000079903980870002089F80000504609B0CD
:10504000BDE8F08FF0B5034615460020002200268B
:1050500000244FE01F782C2F01D104B901221F78C2
:10506000292F01D01F780FB904B944E0002E34D1A4
:105070001F78302F02DB1F78392F11DD1F78612F49
:1050800002DB1F78662F0BDD1F78412F02DB1F78B4
:10509000462F05DD1F78582F02D01F78782F0CD1AE
:1050A00002B128E01F78612F03DB1F78203F0F70CB
:1050B00001E01F780F70491C19E01F78222F04D1DE
:1050C00002B118E00126012411E01F78202F0ED034
:1050D0001F782C2F0BD0FF260DE01F78222F00D138
:1050E000002402B107E014B11F780F70491C471C5F
:1050F000F8B25B1CAEE700BF00270F702E70F0BD4A
:1051000002460020002105E0474B5B5C0344D8B217
:105110004B1CD9B29142F7DB70472DE9F043B5B093
:1051200005460F460024002604E000213E48815534
:10513000701CC6B20A2EF8DB06E06D1C287818B980
:10514000012035B0BDE8F08328782828F5D16D1C02
:1051500061E034AA69462846FFF774FF06463544E5
:105160009DF8D00020B1012827D0FF284CD149E07C
:105170009DF8000000B333A96846FFF7FCFD064622
:105180000EB10220DDE72046FFF7BAFF26490A31BB
:10519000339A0A50A1F12400008B0121A1408843D9
:1051A00021491A39088304211F480155601CC4B2E3
:1051B0000A2C01DD0320C4E726E06846FFF7C4FDA2
:1051C000401C00F0FF082046FFF79AFF16490A31FD
:1051D00000EB010949466846FFF7ABFD12481A3853
:1051E000018B0120A040014388B20F491A3908837E
:1051F0000D4800F80480601CC4B20A2C01DD0320B5
:105200009FE701E002209CE700BF2878292801D011
:10521000287800B900E09CE700BF3C70002090E7D0
:10522000766F6964000000008E0000207047000067
:105230000FB4044910B503AA029800F0FDF910BCA0
:105240005DF814FB0800002070B50446856900680D
:10525000C10601D5302600E02026C00708D070BD69
:10526000D4E9012130469047206A00F10100206214
:105270006D1EF5D570BD70B5044685690078C00710
:1052800008D170BDD4E9012120209047206A00F1A7
:10529000010020626D1EF5D570BD70B50C46054647
:1052A000012A05D02878800600D5EA69002302E0AB
:1052B000012305E05B1C934202D2E05C0028F9D197
:1052C000A869E618C01AA861286A18442862284606
:1052D000FFF7BAFF04E0D5E9012114F8010B90476C
:1052E000B442F8D32846FFF7C6FF70BD2DE9F04160
:1052F0000646002410687529314616A511D0AFF373
:105300000080002803DAC0F1000013A507E031682F
:105310008A0701D511A502E0490704D510A501248B
:1053200001E0AFF3008000210A2306F1240707E023
:10533000B0FBF3F203FB1200303078541046491CE6
:105340000028F5D123462A463046BDE8F04100F05A
:1053500001B90000000000002D0000002B0000003B
:105360002000000070B504460D4621461068AFF3DA
:1053700000802188090502D5104A7A4402E00F4ACC
:105380007A440E32002104F1240307E000F00F06F6
:105390004FEA1010965D5E5401F101010028F5D12D
:1053A00003462078000704D5702D02D009B11132D0
:1053B00002232046BDE8704000F0CCB85C17000026
:1053C0002DE9F05F894604464FF0000ADFF878B116
:1053D000FB44C0F820A02046E1688847002875D02B
:1053E000252806D0D4E901219047206A401C20627C
:1053F000F1E700265F462046E168884720280546F9
:1054000008DB312D06D207EB050010F8200C08B19F
:105410000643F0E7B00701D526F00406C4F81CA047
:105420000027C4F818A02A2D09D0284600F062F9F8
:1054300038B304EB8708303DC8F8185019E059F824
:10544000041B204604EB87029161E1688847012F25
:10545000054618D1E069002820DA26F020061DE074
:10546000D8F8180000EB800005EB40003038C8F891
:1054700018002046E1688847054600F03BF90028FF
:10548000EED1012F0AD02E2D08D12046E1688847A1
:105490007F1C0546022F46F02006C4DBA0690028C9
:1054A00003DA404246F00106A061F00701D026F081
:1054B00010066C2D0BD0682D09D04C2D39D06A2DDB
:1054C00035D0742D35D07A2D33D016E038E0E16830
:1054D0002F4620468847B842054609D16C2F26D072
:1054E0004FF48060E168064320468847054604E0A3
:1054F0006C2F1AD04FF4807006430DB3A5F1410014
:10550000192802D8203546F400664A462946204626
:1055100026604E46FAF766FE80B101280BD0F61DD4
:1055200026F0070000F1080955E74020E4E7802055
:10553000D8E70020D6E706F104094CE7284651E7F2
:10554000206ABDE8F09F00002E17000070477047EA
:10555000704770472DE9F0470D469946924604463C
:1055600000F124080168880604D5E06921F01001E3
:10557000216000E00120A84202DDA0EB050700E069
:105580000027A16907EB050202EB0900A1EB00006F
:10559000A0612078C00602D42046FFF755FE002601
:1055A00008E0D4E901211AF806009047206A401C5F
:1055B000761C20624E45F4DB2078C0060AD52046D2
:1055C000FFF742FE06E0D4E9012130209047206A2F
:1055D000401C2062381EA7F10107F4DC07E0D4E983
:1055E000012118F805009047206A401C2062281EFF
:1055F000A5F10105F3DC2046FFF73DFE207800060B
:1056000002D50220BDE8F0870120FBE710B5436911
:1056100013B1AFF3008001E0FFF73FFE012010BDA2
:10562000127800F124010A7000224A700122EDE78D
:1056300011684FF0FF32E9E7074B70B50D467B4428
:1056400000F011F80446284600F020F810B14FF0A1
:10565000FF3070BD204670BD55B2FFFF01694A1C86
:1056600002610878704700B58FB0CDE901310021A3
:10567000059105497944CDE9031011466846FFF7C5
:105680009FFE0FB000BD0000E5FFFFFF007B00F0B4
:1056900080007047754600F029F8AE46050069465F
:1056A000534620F00700854618B020B5FAF7D6FD1E
:1056B000BDE820404FF000064FF000074FF0000813
:1056C0004FF0000B21F00701AC46ACE8C009ACE894
:1056D000C009ACE8C009ACE8C0098D467047044673
:1056E000AFF300802046FAF79BFD000000487047AA
:1056F0007C02002030380A2801D2012070470020A7
:105700007047000021F00042A2F16052B2F5801F04
:1057100001F0004328BFD2F17F6C0BD95FEA001C77
:1057200043EAC20242EB507018BF704728BF20F016
:1057300001007047B2F5801FBCBF184670474FEAA2
:10574000410C1CF5001F02D2084600F004BC70B5E5
:1057500000F062F900000089FFF7F6BF4FF000404B
:10576000A0F58000704700002DE9C04130B4DFF89B
:10577000A0C23CEA111418BF3CEA131400F0EC80FC
:1057800081EA03051CEA111444EAD57418BF1CEA27
:10579000131500F0C780A4EB05044FF0004545EA5F
:1057A000C12145EAC32341EA505143EA525304F16F
:1057B0007F74994204F500344FEAC0204FEAC222B8
:1057C00008BF904200F09C804FEA13650FF240162C
:1057D000765D4FEA134506FB05F7C7F1807706FBB8
:1057E00007F74FEAD737A7FB03687642C8F580383A
:1057F000A7FB06CE38BFA8F1010807FB08E64FF06B
:10580000000EA6FB028CE6FB03CEDCF1000CCEF111
:10581000004E38BFAEF1010EA6FB0C584FF000074A
:105820004FF00005E6FB0E87A1FB08C6A0FB07CEE4
:1058300016EB0E0645F10005E1FB076515F1E04E9C
:105840007EBFA4F580345FEA46066D4116F18007FD
:1058500045F100054FEA17274FEA066647EA056754
:10586000A6F1DE46B6F1805F4FEA15251FD938460E
:1058700024F0010C05EBC471BCF1FE6F01EB0C11BF
:1058800002D8F0BCBDE8008124425CBF01F5801E57
:105890009EEAC47F02D4F0BCBDE80081244238D423
:1058A000F0BCA1F1C041BDE8004100F003B94FEAEE
:1058B000D22242EA43524FEAD323A7FB02864FEAA1
:1058C000D02040EA415007FB03661EEA0E0F4FEA64
:1058D000D12105FB026658BFA6EB0056B6EB005679
:1058E0004FEA520E4EEAC37E18EB0E0E56EB530EE5
:1058F000BDD518EB02085E417F1C55F10005B6E7E7
:105900004FF480154FF000074FF000064FF00008ED
:10591000ADE7F0BC4FF0000001F1C04101F00041E3
:10592000BDE8008111EA0C1F0CEA131500D00CE051
:1059300013EA0C1F00F025804FF00000F0BC81EA54
:10594000030101F00041BDE80081F0BCBDE8004169
:1059500081EA030100F0AEB8F0BCBDE8004170B5CB
:1059600000F05AF8097EFC3E00F007B881EA030116
:105970004FF0000001F00041704781EA030100F0A0
:1059800099B8F0BCBDE800414FF0000021497047D4
:10599000FFFDFBF9F7F5F4F2F0EEEDEBE9E8E6E4F4
:1059A000E3E1E0DEDDDBDAD8D7D5D4D3D1D0CFCD7B
:1059B000CCCBCAC8C7C6C5C4C2C1C0BFBEBDBCBBB4
:1059C000BAB9B8B7B6B5B4B3B2B1B0AFAEADACABAF
:1059D000AAA9A8A8A7A6A5A4A3A3A2A1A09F9F9E89
:1059E0009D9C9C9B9A99999897979695959493933B
:1059F000929191908F8F8E8E8D8C8C8B8B8A8989D2
:105A00008888878786858584848383828281818054
:105A10000000FF070000F87F0EF1020E2EF0030ECB
:105A20005EF8046B364205D4012A43EB030515F5F5
:105A3000001F12D8012841EB010C1CF5001F0CD8E7
:105A40000ED14FEAD17C15F5001F0CEB4C0C0CF17C
:105A5000020C08BF4CEBD37C04E04FF0080C01E0D3
:105A60004FEAD37C0CEB4C0526FA05F606F0070648
:105A7000B6F1040C06D20EEB860CBDE870404CF07B
:105A8000010C6047DFE80CF0090B02024FF0004107
:105A90004FF00000A1F5002170BD19461046012805
:105AA00051EB010418BFD4F5001484BF002001F0AD
:105AB000004170BD0808A0F500114FEA31017047A0
:105AC00043004FEAD30C4FEA3C0C43401FBF400752
:105AD0000CF1605113F0FE4F70471CF0006F03D1C2
