:020000040800F2
:10000000100B002045010008ED0F0008EF0F00085D
:10001000F30F0008F70F0008FB0F000800000000B6
:10002000000000000000000000000000FF0F0008BA
:10003000011000080000000003100008392000082B
:100040005F0100085F0100085F0100085F01000810
:100050005F0100085F0100085F0100085F01000800
:100060005F0100085F0100085F0100085F010008F0
:100070005F0100085F0100085F0100085F010008E0
:100080005F0100085F0100085F0100085F010008D0
:100090005F0100085F0100085F0100085F010008C0
:1000A0005F0100085F0100085F0100085F010008B0
:1000B0005F0100085F0100085F0100085F010008A0
:1000C0005F0100085F0100085F0100085F01000890
:1000D0005F010008751F00085F0100080D1000088F
:1000E0005F0100085F0100085F0100085F01000870
:1000F0005F0100085F0100085F0100085F01000860
:100100005F0100085F0100085F0100085F0100084F
:100110005F0100085F0100085F0100085F0100083F
:100120005F0100085F0100085F0100085F0100082F
:10013000DFF80CD002F03CF8004800472D0F000813
:10014000100B00200648804706480047FEE7FEE700
:10015000FEE7FEE7FEE7FEE7FEE7FEE7FEE7FEE777
:1001600047020008310100080CB500200190009002
:100170006C48006840F480306A49086000BF6948F4
:10018000006800F4003000900198401C0190009835
:1001900018B90198B0F5A06FF1D16248006800F479
:1001A000003010B10120009001E000200090009884
:1001B000012843D15C48006840F010005A490860AB
:1001C0000846006820F0030008600846006840F018
:1001D0000200086053484068524948600846406839
:1001E00048600846406840F48060486008464068BF
:1001F00020F47C1048600846406840F4E8104860ED
:100200000846006840F08070086000BF45480068FC
:1002100000F000700028F9D04248406820F0030048
:10022000404948600846406840F00200486000BF0E
:100230003C48406800F00C000828F9D10CBD10B50E
:10024000FFF792FF10BD10B53648006840F001007E
:1002500034490860084640683449084031494860DC
:1002600008460068324908402E4908600846006880
:1002700020F4802008600846406820F4FE004860B2
:100280004FF41F008860FFF7DAFF4FF00060294944
:10029000086010BD10B5002100200022214B5B68D2
:1002A00003F00C0121B1042906D0082928D107E068
:1002B000214B224C236027E01F4B204C236023E07E
:1002C000184B5B6803F47010164B5B6803F48032C4
:1002D000022303EB904022B9194B4343174C236090
:1002E0000DE0104B5B6803F4003323B1144B434320
:1002F000124C236003E0104B4343104C236003E097
:100300000D4B0E4C236000BF00BF064B5B68C3F370
:1003100003130C4CE15C094B1B68CB40074C23607A
:1003200010BD000000100240002002400000FFF855
:10033000FFFFF6FE08ED00E000127A00000000204A
:1003400000093D000400002031490143314A116099
:10035000704770B5002100230F22C47804B32D4CE0
:10036000246804F4E064C4F5E064210AC1F10403E4
:10037000CA40447804FA03F1847814402143090107
:10038000254C0678A155047804F01F050124AC40E3
:1003900005786D11AD0005F1E025C5F8004109E0D3
:1003A000047804F01F050124AC401C4D067876113A
:1003B00045F8264070BD1A4A0A400243154B1B1FE0
:1003C0001A60704739B1134A121D12680243114B6B
:1003D0001B1D1A6006E00F4A121D126882430D4B66
:1003E0001B1D1A607047042808D14FF0E0210969ED
:1003F00041F004014FF0E022116107E04FF0E021ED
:10040000096921F004014FF0E022116170470000FA
:100410000000FA050CED00E000E400E080E100E0FF
:1004200080FFFF1F10B50446CC48844208D101214B
:10043000042000F02DFB0021042000F029FB46E001
:10044000C748844208D10121082000F021FB002187
:10045000082000F01DFB3AE0C248844208D1012187
:10046000102000F015FB0021102000F011FB2EE001
:10047000BD48844208D10121202000F009FB002161
:10048000202000F005FB22E0B848844208D1012179
:10049000402000F0FDFA0021402000F0F9FA16E0BB
:1004A000B348844208D10121802000F0F1FA0021F4
:1004B000802000F0EDFA0AE0AE48844207D1012125
:1004C000801500F0E5FA0021A01500F0E1FA10BD5A
:1004D00010B50121084600F0DBFA0021012000F0F0
:1004E000D7FA10BD2DE9F041024600250026002074
:1004F00000230024002791F803C00CF00F0591F8A9
:1005000003C00CF0100CBCF1000F03D091F802C036
:100510004CEA050591F800C0BCF1000F31D0146819
:1005200000202BE04FF0010C0CFA00F3B1F800C0F2
:100530000CEA03069E4220D183004FF00F0C0CFA08
:1005400003F7BC4305FA03FC4CEA040491F803C02A
:10055000BCF1280F06D14FF0010C0CFA00FCC2F8D8
:1005600014C00AE091F803C0BCF1480F05D14FF068
:10057000010C0CFA00FCC2F810C0401C0828D1D3B2
:100580001460B1F800C0BCF1FF0F34DD54680020E6
:100590002EE000F1080C4FF0010808FA0CF3B1F856
:1005A00000C00CEA03069E4221D183004FF00F0CDD
:1005B0000CFA03F7BC4305FA03FC4CEA040491F877
:1005C00003C0BCF1280F05D100F1080C08FA0CF8A3
:1005D000C2F8148091F803C0BCF1480F07D100F1B4
:1005E000080C4FF0010808FA0CF8C2F81080401C03
:1005F0000828CED35460BDE8F0814FF6FF7101802A
:10060000022181700421C170704702460020936866
:100610000B400BB1012000E00020704701468868C4
:1006200080B2704702460020D3680B400BB1012016
:1006300000E0002070470146C86880B27047016141
:100640007047416170470AB1016100E04161704744
:10065000C16070474FF480320A43826181618261D8
:1006600082698269704702460020434B18684FF642
:100670008073184040EA021008433F4B18607047EF
:100680003E49C8617047F0B50A46002300240021A6
:10069000002500F00046B6F1004F02D1364EF16958
:1006A00001E0354E7168C0F3034583B200F4401693
:1006B000B6F5401F08D121F070612F4E766826F004
:1006C00070662D4F7E6012E000F48016B6F5801F34
:1006D00006D1032606FA05F4A14341F0706106E055
:1006E000460D360103FA06F6B14341F0706122B1BE
:1006F000460D360103FA06F6314300F00046B6F126
:10070000004F02D11C4EF16101E01B4E7160F0BD43
:1007100030B500228B071C0F0F2303FA04F2164B8F
:1007200008338C1053F824309343134C08348D1045
:1007300044F8253023468C1053F824308C07240FBE
:1007400000FA04F423430C4C08348D1044F825308F
:1007500030BD0A49DC3108607047000000080140E4
:10076000000C01400010014000140140001801403D
:10077000001C014000200140000001400000204218
:10078000DF48006840F00100DD4908600846406825
:10079000DC490840DA49486008460068DA49084000
:1007A000D74908600846006820F4802008600846A1
:1007B000406820F4FE0048604FF41F0088607047D6
:1007C000CF49096821F48031CD4A1160114609688A
:1007D00021F480211160B0F5803F03D0B0F5802F67
:1007E0000ED106E0C649096841F48031C44A11605F
:1007F00007E0C349096841F4A021C14A116000E043
:1008000000BF00BF704710B5014600220023002042
:100810004A11012A02D1BA4C236806E0022A02D109
:10082000B74C236A01E0B64C636A01F01F02012451
:1008300094401C400CB1012000E0002010BD38B5F0
:10084000002000900024002500BF3120FFF7DBFFCF
:1008500005460098401C00900098B0F5A06F01D0AC
:10086000002DF2D03120FFF7CEFF08B1012400E0C7
:100870000024204638BD01460020A14A106820F01F
:10088000F80040EAC10010607047A0490860704756
:10089000024600209A4B586820F47C1042EA01037B
:1008A0001843974B5860704798490866704701464F
:1008B0000020934A506820F00300084350607047BE
:1008C0008F48406800F00C007047014600208C4AB9
:1008D000506820F0F0000843506070470146002047
:1008E000874A506820F4E060084350607047014632
:1008F0000020834A506820F4605040EAC1005060F4
:10090000704729B17E4A527A02437D4B5A7204E005
:100910007B4A527A82437A4B5A7270477B49D8316C
:100920000860704701460020754A506820F4404036
:100930000843506070470021714A20321170704A9C
:1009400082F82010012802D004280AD104E00121F5
:100950006B4A2032117005E00521694A203211707E
:1009600000E000BF00BF70476949086070476449F4
:10097000096A0143624A1162704765494439086057
:10098000704730B500210022002400235C4D6D68C3
:1009900005F00C0121B1042905D0082923D105E077
:1009A0005C4D056022E05B4D05601FE0544D6D68B5
:1009B00005F47012524D6D6805F48034022505EB84
:1009C00092421CB9544D554305600BE04C4D6D6887
:1009D00005F400351DB1504D5543056002E04D4D05
:1009E0005543056002E04B4D056000BF00BF444D1C
:1009F0006D6805F0F0010909484D6B5C0568DD4044
:100A000045603F4D6D6805F4E061090A434D6B5C3C
:100A10004568DD4085603A4D6D6805F46051C90A4E
:100A20003E4D6B5C4568DD40C560354D6D6805F435
:100A30004041890B3A4D6B5CC568B5FBF3F5056128
:100A400030BD29B12E4A526902432D4B5A6104E050
:100A50002B4A526982432A4B5A61704729B1284A6E
:100A600092690243264B9A6104E0254A92698243C7
:100A7000234B9A61704729B1214AD2690243204B26
:100A8000DA6104E01E4AD26982431D4BDA61704785
:100A900029B11B4AD2680243194BDA6004E0184AB4
:100AA000D2688243164BDA60704729B1144A126942
:100AB0000243134B1A6104E0114A12698243104B3E
:100AC0001A61704712494039086070470F49C8647D
:100AD00070470B49C87170470948406A40F0807000
:100AE00007494862704701460020054A92680A405B
:100AF0000AB1012000E00020704701498872704768
:100B0000001002400000FFF8FFFFF6FE0000424226
:100B10008004424200127A0000093D0014000020C7
:100B20002400002010B50446FB48844209D101216D
:100B30008803FFF7ADFF00214FF48040FFF7A8FFC7
:100B400032E0F648844209D101214804FFF7ADFFA5
:100B500000214FF40030FFF7A8FF25E0F048844261
:100B600009D101218804FFF7A0FF00214FF4802064
:100B7000FFF79BFF18E0EB48844209D10121C8042C
:100B8000FFF793FF00214FF40020FFF78EFF0BE0EB
:100B9000E548844208D101210805FFF786FF0021BE
:100BA0004FF48010FFF781FF10BD2DE9F04786B0AC
:100BB00005460E460024A24600BFA1460027B08984
:100BC00000B100BF2F462C8A4CF6FF700440F0881D
:100BD00004432C82AC894EF6F3100440B08831896E
:100BE0000843718908430443AC81AC8A4FF6FF4047
:100BF0000440B0890443AC8201A8FFF7C2FEC64896
:100C0000874202D1DDF810A001E0DDF80CA0A88930
:100C100000F4004040B10AEBCA0000EB0A10316852
:100C20004900B0FBF1F807E00AEBCA0000EB0A103C
:100C300031688900B0FBF1F86420B8FBF0F00401E2
:100C40002009642101FB1089A88900F4004040B10B
:100C5000322000EBC900B0FBF1F000F007000443C4
:100C600008E0322000EB09106421B0FBF1F000F045
:100C70000F0004432C8106B0BDE8F0874FF41651F5
:100C8000016000218180C18001810C21418100210E
:100C90008181704710B502460020108A4FF2FF0391
:100CA00018400B884C8823438C882343CC882343EB
:100CB0001843108210BD0021018041808180C180D5
:100CC000704721B1828942F40052828104E0828916
:100CD0004DF6FF731A4082817047F0B50346002439
:100CE00000260025002040F66A17B94200D100BF57
:100CF0001846C1F3421401F01F06012707FA06F552
:100D0000012C01D10C3004E0022C01D1103000E0A4
:100D100014301AB107682F43076002E00768AF4339
:100D20000760F0BD1AB1838A0B43838202E0838A95
:100D30008B4383827047028A4FF6F0731A40028217
:100D4000028A0A430282704782894FF2FF731A4077
:100D5000828182890A438281704721B1828942F06F
:100D60000202828104E082894FF6FD731A4082817B
:100D70007047028A4FF6DF731A400282028A0A43E2
:100D80000282704721B1028A42F48042028204E06A
:100D9000028A4BF6FF731A4002827047C1F30802C1
:100DA0008280704701468888C0F3080070478189B7
:100DB00041F0010181817047028BD2B20283028B24
:100DC00042EA012202837047028B02F47F420283CF
:100DD000028B0A430283704721B1828A42F02002CB
:100DE000828204E0828A4FF6DF731A408282704763
:100DF00021B1828A42F01002828204E0828A4FF698
:100E0000EF731A408282704721B1828A42F0080251
:100E1000828204E0828A4FF6F7731A40828270471A
:100E200021B1828942F40042828103E08289C2F3C7
:100E30000E028281704721B1828A42F4006282826E
:100E400004E0828A4FF2FF731A4082827047828ADE
:100E50004FF6FB731A408282828A0A43828270476D
:100E600021B1828A42F00202828204E0828A4FF635
:100E7000FD731A408282704702460020B1F5007F60
:100E800000D100BF13880B400BB1012000E000200F
:100E9000704701F40072B2F5007F00D100BFCA4371
:100EA0000280704770B50246002400230025002010
:100EB00040F66A16B14200D100BFC1F3421501F0FD
:100EC0001F03012606FA03F3012D02D19689334050
:100ED00006E0022D02D1168A334001E0968A3340A3
:100EE0000C12012606FA04F41688344013B10CB132
:100EF000012000E0002070BD10B50022002340F664
:100F00006A14A14200D100BF0A1201249440A3B286
:100F1000DC43048010BD0000003801400044004064
:100F200000480040004C00400050004000F0AEFE81
:100F3000274800684FF47A72B0FBF2F1B1F1807F7C
:100F400000D31DE021F07F40401E4FF0E0225061B1
:100F500050170F22002807DA13071D0E1D4B00F053
:100F60000F04241F1D5503E013071C0E1A4B1C54BD
:100F700000BF00204FF0E02290610720106100BF09
:100F800000F0C6F900F080FF00F070FD00BF1348CC
:100F900000684EF66021884211DB1148114909684A
:100FA00030F81100A0F51C4041380F490880032299
:100FB0000021012000F004FF00200849086000F033
:100FC000B4FF0128E3D100F013FE01F07BF8DEE767
:100FD0000000002018ED00E000E400E02800002000
:100FE0002C0000206C0000206A000020704700BF29
:100FF000FEE700BFFEE700BFFEE700BFFEE7704769
:101000007047704710B500F01FFD10BD10B540F2DD
:1010100025512048FFF746FFD8B11E48FFF7C2FE12
:10102000C4B21D48B0F80004C0F30E0040F2FF3116
:1010300088420EDA1849B1F80014C1F30E00411CC1
:10104000154AB2F8002461F30E021349A1F80024F6
:101050000C5440F224410F48FFF724FF012817D118
:101060000D48B0F8000420F4004000F500400A49A3
:10107000A1F800040748FFF795FEC4B207A106488F
:1010800001F062F808B1012000E000200649087074
:1010900010BD00000048004088000020434C4F5322
:1010A00045440D0A0000000074000020F0B503461E
:1010B0000D461646002729460A2E03D00020087048
:1010C0002846F0BD33B9302001F8010B002008702C
:1010D0002846F6E7002B03DA2D2001F8010B5B42CE
:1010E00042F210720DE093FBF2F404B937B104F14F
:1010F000300001F8010B04FB123301270A2092FB98
:10110000F0F2002AEFDC002008702846D9E70FB47F
:1011100070B586B006460CA8019073E00B98007875
:101120005C281CD10B98401C0B9000786E2809D0CD
:1011300072280FD10D213046FFF730FE0B98401C6E
:101140000B900BE00A213046FFF728FE0B98401C5D
:101150000B9003E00B98401C0B9000BF4BE00B98EA
:101160000078252840D10B98401C0B90007864280B
:1011700018D0732833D1019810C801900BE0217862
:101180003046FFF70BFE00BF80213046FFF774FEAC
:101190000028F9D0641C20780028F0D10B98401C5E
:1011A0000B9020E0019820C801900A2202A928464D
:1011B000FFF77CFF02AC0BE021783046FFF7EEFD35
:1011C00000BF80213046FFF757FE0028F9D0641C8D
:1011D00020780028F0D10B98401C0B9003E00B986E
:1011E000401C0B9000BF06E00B9810F8011B0B9001
:1011F0003046FFF7D3FD00BF80213046FFF73CFEAD
:101200000028F9D00B980078002887D106B070BC70
:101210005DF814FB08B54FF4A060FFF795F82720A0
:101220008DF8000000208DF801008DF802000120EB
:101230008DF803006846FFF78CF808BD00B585B04F
:1012400001218804FFF717FC01210820FFF706FCA5
:101250004FF48060ADF8100018208DF813000320C3
:101260008DF8120004A9F948FFF73CF94FF400602B
:10127000ADF8100004208DF8130004A9F348FFF71F
:1012800031F94FF4E13000900020ADF80400ADF8E2
:101290000600ADF80800ADF80C000C20ADF80A000F
:1012A0006946EB48FFF781FC012240F22551E848EE
:1012B000FFF713FD012240F22441E548FFF70DFD41
:1012C000FFF7A8FF0121E248FFF7FBFC05B000BDD6
:1012D00008B501210820FFF7C1FB4FF48070ADF87D
:1012E000000010208DF8030003208DF802006946ED
:1012F000D648FFF7F7F801210820FFF7AFFB4FF4BE
:101300000070ADF800006946D048FFF7EBF808BD63
:1013100010B5FFF7DDFFFFF791FF4FF40071CB48E9
:10132000FFF78DF94FF48071C848FFF78AF910BDB7
:1013300010B54FF40071C548FFF783F94FF4FA7008
:1013400000F070FB4FF40071C048FFF778F910BD52
:101350002DE9F04106460C4615461F46BD48B0F83B
:1013600000046FF30E00BB49A1F800043246BAA195
:10137000B748FFF7CCFE1CB915B90120BDE8F081D4
:10138000384600F04FFB0020B249B1F80014C1F319
:101390000E01B04A5054B4B1ADB12146104600F030
:1013A000D3FE08B1012000E0002040B92946A94839
:1013B00000F0CAFE08B1012000E0002008B10120C1
:1013C000DCE70020DAE744B12146A24800F0BCFE89
:1013D00008B10120D2E70020D0E729469D4800F05F
:1013E000B3FE08B10120C9E70020C7E710B500240B
:1013F0004FF400719548FFF722F94FF47A7000F02E
:1014000011FB0CE04FF4FA73002295A195A0FFF7B1
:101410009FFF00B110BDFFF78BFF601CC4B20A2C08
:10142000F0DB00BFF6E710B5044624B1012C0AD06A
:10143000022C18D10FE040F6C4138BA288A18DA016
:10144000FFF786FF10BD40F6C41387A284A18CA0CD
:10145000FFF77EFFF6E740F6C41383A280A18BA0BE
:10146000FFF776FFEEE70020ECE730B59FB00446CB
:101470000D462B46224688A101A800F0BBFE41F292
:101480008833002276A101A8FFF762FF1FB030BDAC
:1014900070B5A0B004460D4616462B46224683A1E1
:1014A00002A8009600F0A6FE4FF47A7300226CA109
:1014B00002A8FFF74DFF20B070BD10B586B00446FE
:1014C0000CB1012000E0002002467EA101A800F03E
:1014D00091FE4FF4FA73002261A101A8FFF738FFD3
:1014E00006B010BDF0B5B9B006460F4614461D460D
:1014F000642120A800F01DFE16B1012E10D107E0D6
:101500003B4674A274A120A8009400F073FE08E08A
:101510003B4675A270A120A8009400F06BFE00E08D
:1015200000BF00BF052D06DA20AB2A466FA102A836
:1015300000F060FE04E020AA71A102A800F05AFEAB
:101540004FF47A6372A246A102A8FFF701FF39B0F7
:10155000F0BD70B5BCB004460D461646FCB12B4636
:1015600001226FA11EA800F045FE324671A1684617
:1015700000F040FE4FF4FA73002239A11EA8FFF7D5
:10158000E7FE50B14FF4FA73002235A16846FFF729
:10159000DFFE10B101203CB070BD0020FBE72B4600
:1015A00000225FA11EA800F025FE4FF4FA7300226E
:1015B0002BA11EA8FFF7CCFEEDE710B54FF4FA7390
:1015C000002227A15FA0FFF7C3FEA0B161A12148BF
:1015D00000F0BAFD08B1022010BD61A11D4800F065
:1015E000B3FD08B10320F7E760A11A4800F0ACFD95
:1015F00008B10420F0E70020EEE710B500244FF416
:10160000FA73002216A14FA0FFF7A2FE00281CD0FB
:1016100059A1104800F098FD10B144F0010401E018
:1016200024F0010458A10B4800F08EFD10B144F0E5
:10163000020401E024F0020457A1064800F084FDF2
:1016400010B144F00404B1E0AEE0C3E0000C01408E
:10165000004800408800002025730D0A00000000AB
:101660004F4B0000415400006E6F206368616E674D
:101670006500000041542B43574D4F44453D310018
:1016800041542B43574D4F44453D320041542B4369
:10169000574D4F44453D330041542B43574A415029
:1016A0003D222573222C22257322000041542B4316
:1016B000575341503D222573222C222573222C3171
:1016C0002C25640041542B4349504D55583D256409
:1016D0000000000054435000222573222C22257361
:1016E000222C2573000000005544500041542B4328
:1016F000495053544152543D25642C257300000039
:1017000041542B43495053544152543D25730000DA
:10171000414C5245415920434F4E4E4543540000E1
:1017200041542B4349505345525645523D25642C54
:101730002573000041542B43495053544F3D2573AA
:101740000000000041542B43495053544154555319
:10175000000000005354415455533A320D0A000022
:101760005354415455533A330D0A000053544154D5
:1017700055533A340D0A00002B43495053544154F9
:1017800055533A302C0000002B43495053544154D8
:1017900055533A312C0000002B43495053544154C7
:1017A00055533A322C00000024F0040460A1644830
:1017B00000F0CAFC10B144F0080401E024F0080471
:1017C00060A15F4800F0C0FC10B144F0100401E0DB
:1017D00024F01004204610BD2DE9F04105460F46C7
:1017E0004FF4FA730022AFF288115AA0FFF7B0FD50
:1017F0005BA1534800F0A8FC06460EB1B61D02E0FE
:101800000020BDE8F081002409E0305D2855285D06
:10181000222802D10020285503E0601CC4B2BC423B
:10182000F3DB00BF0120ECE710B54FF4FA730022A0
:10183000AFF2D4114CA0FFF78BFD08B9002010BD0A
:101840004FF4FA734CA2AFF2E8114CA0FFF780FD01
:10185000F5E710B54FF47A7000F0E4F84AA14B4870
:10186000FFF755FC4FF4FA7000F0DCF810BD2DE9DD
:10187000F04186B007460C4615461E464FF000085C
:1018800047B12246AFF27C114048FFF740FC4FF0D1
:1018900001081CE0052E06DAAB1C32463CA101A86B
:1018A00000F0A8FC04E0AA1C3EA101A800F0A2FCE4
:1018B0004FF47A7300223FA101A8FFF749FD4FF4CE
:1018C0007A7300223CA12046FFF742FD8046404645
:1018D00006B0BDE8F08170B5044600251848B0F8A0
:1018E00000046FF30E001649A1F800040846B0F892
:1018F000000420F40040A1F8000400BF1048B0F834
:101900000004C00B0028F9D000200D49B1F80014E4
:10191000C1F30E010A4A50540CB1154605E028A146
:10192000074800F011FC00B1054D284670BD0000CD
:101930002B4349505354415455533A332C00000023
:10194000880000202B4349505354415455533A3496
:101950002C00000041542B43494653520000000024
:10196000415049502C22000041542B4349504D4FC7
:1019700044453D31000000003E00000041542B432F
:10198000495053454E4400002B2B2B00004800408B
:1019900041542B43495053454E443D25642C256406
:1019A0000000000041542B43495053454E443D250F
:1019B000640000003E20000053454E44204F4B0081
:1019C0002B4950440000000030B5244800684FF413
:1019D0007A72B0FBF2F1B1F1807F01D301201DE0FA
:1019E00021F07F40401E4FF0E022506150170F223F
:1019F000002807DA13071D0E194B00F00F04241FEF
:101A00001D5503E013071C0E164B1C5400BF00208D
:101A10004FF0E022906107201061002008B100BF64
:101A2000FEE730BD01B51049009808604FF0E02096
:101A3000006940F001004FF0E021086100BF0A4852
:101A400000680028FBD108BD0748006820B106489F
:101A50000068401E04490860704700000000002034
:101A600018ED00E000E400E07000002010B54FF435
:101A700080716948FEF7E3FDFFF7B8FC0020FFF72F
:101A8000D2FC00BF65A168A0FFF7EFFC0028F9D0E9
:101A90000020FFF712FD00BF052365A265A100200D
:101AA000FFF720FD0028F7D000BFFFF7BDFE00289C
:101AB000FBD010BD9AB06422624901A800F020FB5F
:101AC0004FF480715448FEF7BAFDFFF78FFC0020F9
:101AD000FFF7A9FC00BF51A153A0FFF7C6FC0028E7
:101AE000F9D00020FFF7E9FC00BF052350A251A167
:101AF0000020FFF7F7FC0028F7D000BFFFF794FEA7
:101B00000028FBD037E001A94FA000F063FB0523BC
:101B1000002201A90120FFF7AAFE4FF47A70FFF717
:101B200081FF4FF47A70FFF77DFF4FF47A70FFF773
:101B300079FF46480078F0B1FFF78BFE00BFFFF752
:101B40003CFD0446002CFAD0042C0FD100BF33A179
:101B500035A0FFF78AFC0028F9D000BF052334A286
:101B600034A10020FFF7BEFC0028F7D000BFFFF72C
:101B70005BFE0028FBD0C6E7F0B504461546002002
:101B80001EE0265C3211265C06F00F033032392A43
:101B900003DDD61D01F8106001E001F8102003F10B
:101BA0003006F3B2392B05DDDE1D012707EB4007B8
:101BB000CE5503E0012606EB40068B55461C30B29D
:101BC000A842DEDBF0BD10B521482249D0F80C2236
:101BD000FFF7D2FF1E4880784006000E1E490870AD
:101BE000084602781B49891D1C4800F0BFFA10BD49
:101BF00010B5FFF7E8FF164890F8020149F6414199
:101C0000084417490880154B0846028815A11E484C
:101C100000F0F0FA10BD0000000C01403132333406
:101C20003536373800000000313233340000000010
:101C3000383000003139322E3136382E302E3130E6
:101C40003500000000240008257300007400002007
:101C5000E40400209E0400207A000020D00400202C
:101C6000760000207B0D0A20616464726573733A0C
:101C7000222575222C09090D0A20646174613A221B
:101C80002573220D0A7D00008A0400201FB5012162
:101C90004804FEF7F0FE01210420FEF7DFFE4FF4BA
:101CA000E13000900020ADF80400ADF80600ADF87A
:101CB0000800ADF80C000C20ADF80A006946124887
:101CC000FEF773FF01211048FEF7FBFF1FBD70B543
:101CD00004460D46E1B20C48FFF760F800BF8021D2
:101CE0000948FFF7C9F80028F9D0204670BD10B5A3
:101CF000044600BF20210448FFF7BEF80028F9D0B1
:101D00000148FFF74FF810BD0044004010B50446ED
:101D10005748D0F80002C8B95548C0F800424FF4FF
:101D200000415448FEF78BFC00205149C1F80802DD
:101D3000012081F818020020C1F81C02012240F2A3
:101D400027714D48FEF7C9FF012010BD0020FCE7B8
:101D5000F0B502460B460020FF24FF2509E012F8EB
:101D6000016B86EA0501454E765C86EA0405444E21
:101D7000745C1E1EA3F10107BBB2F0D14619B0B2CC
:101D80004FF6FF7606EA00200619B0B2F0BDF0B5B6
:101D900004460D46FF23FF2600210BE0625C5A40FB
:101DA000D0B2364F385C80EA0603D0B2344F3E5C86
:101DB000481C81B2A942F1DB06EB032080B2F0BDE2
:101DC0002DE9F04707460D461646A819A0F101096E
:101DD0002C48077003202B494870084645808680B0
:101DE000002402782146641C2148FF3042542548D3
:101DF00042782146641C1E48FF30425421484088E6
:101E000002122146641C1A48FF3042541D48827851
:101E10002146641C1648FF3042541A48808802123A
:101E20002146641C1248FF3042541648027921466C
:101E3000641C0F48FF3042542146FFF7A8FF80463C
:101E40004FEA28222146641C0948FF3042542046AC
:101E5000611CCCB20649FF3101F800800020FF3937
:101E6000C1F80C022046FFF751FFBDE8F0870000E3
:101E7000E404002000080140003801406424000808
:101E8000642500087C00002000B587B0012144F2E1
:101E90000400FEF7E3FD9648FEF744FE4FF40070A1
:101EA000ADF8180003208DF81A0018208DF81B00DB
:101EB00006A99048FEF716FB4FF48060ADF81800B5
:101EC00004208DF81B0006A98A48FEF70BFB4FF48F
:101ED000165002900020ADF80C00ADF80E00ADF8E1
:101EE0001000ADF814000C20ADF8120002A98048D3
:101EF000FEF75BFE25208DF8040002208DF805001A
:101F000003208DF8060001208DF8070001A8FEF7D8
:101F100020FA012240F225517548FEF7DEFE01212C
:101F20007348FEF7CEFE07B000BD70B50024002553
:101F3000714890F8180203281AD16F48B0F80C02C3
:101F400084B2A01E6C490D5C601E085C00EB05208D
:101F500085B2A01E81B26848FFF719FFA84205D1DB
:101F60000020654981F81802012070BD0020FCE7BF
:101F70000020FAE770B50025002440F225515C48A6
:101F8000FEF790FFB0B100205B49C1F8100258483D
:101F9000FEF708FFC4B2584890F8190250B95648E5
:101FA000D0F80C12D0F80C02401C534AC2F80C02B4
:101FB0001046445440F227714D48FEF773FFD0B3EA
:101FC0004D4890F81802012835D14B48D0F8080246
:101FD0004949D1F8001288420FD24748D0F8082268
:101FE000D0F80802401C444BC3F8080203F1FF007C
:101FF000815C3F48FEF7D2FE1DE0002240F22771CF
:102000003B48FEF76AFE012240F225513848FEF7B0
:1020100064FE00203849C1F80002C1F80802C1F886
:102020000C02022081F818020020C1F81C02C1F83D
:102030002002C1F8100270BD10B50024FFF704FDA6
:102040002D48D0F80C02A8B12B4890F8190288B995
:102050002948D0F81002401C2749C1F81002084650
:10206000D0F810020A2805D9012081F819020320AE
:1020700081F81802204890F8180202281CD11E4846
:10208000D0F82002401C1C49C1F82002022813D3BA
:102090004FF400411748FEF7D4FA0020164981F8A2
:1020A0001902084690F81802012805D16420C1F8E9
:1020B0001402022081F8180210480068401C0F49E1
:1020C000086010BD70B50C48D0F8041200F031F86B
:1020D0000948D0F80012FF3000F02BF80020064924
:1020E000C1F80C02C1F808020024002570BD0000F0
:1020F0000038014000080140E404002028000020CE
:1021000040EA01039B0703D009E008C9121F08C079
:10211000042AFAD203E011F8013B00F8013B521EF9
:10212000F9D27047D2B201E000F8012B491EFBD270
:1021300070470022F6E710B513460A4604461946D2
:10214000FFF7F0FF204610BD30B505462A460B4686
:1021500012F8010B13F8014B08B1A042F8D01CB1E2
:10216000002802D06D1CF1E7284630BD10B50446AA
:1021700004E00B7800F8013B03B1491C521EF8D271
:10218000204610BD30B50B46014600202022012418
:1021900009E021FA02F59D4205D303FA02F5491B35
:1021A00004FA02F52844151EA2F10102F1DC30BD4B
:1021B000064C074D06E0E06840F0010394E8070094
:1021C00098471034AC42F6D3FDF7B6FF64260008FA
:1021D000842600080FB4054B10B503A9044A0298E1
:1021E00000F02CF810BC5DF814FB0000CF1C0008B8
:1021F000840000200FB4084B10B504A902AA03986C
:1022000000F01CF8044602A9002000F0F3F8204674
:1022100010BC5DF814FB0000F523000802E008C8BC
:10222000121F08C1002AFAD170477047002001E050
:1022300001C1121F002AFBD1704700002DE9FF4F9A
:102240008BB09A460F460546002606E025280BD09F
:1022500052460D9990476D1C761C28780028F5D1C0
:102260000FB03046BDE8F08F0024A046012260493F
:1022700000E0044315F8013F203B02FA03F0084256
:10228000F7D128782E2817D115F8010F44F004044F
:102290002A280ED06FF02F022878A0F130010929EA
:1022A0000AD808EB880102EB410100EB01086D1C24
:1022B000F2E757F8048B6D1C287869283ED006DCBD
:1022C0000028CDD063280BD0642804D136E07328D1
:1022D00010D075284BD052460D999047761C85E05A
:1022E00017F8040B8DF8000000208DF80100E94676
:1022F000012003E057F8049B4FF0FF3061074FF0D7
:10230000000401D40AE0641C44450DDA8442FADB7F
:1023100019F804100029F6D106E0641C8442FCDBA5
:1023200019F804100029F8D1264404E019F8010B2B
:1023300052460D999047641EF8D257E001CF4FF0F6
:102340000A0B002802DA40422D2102E0210504D5C3
:102350002B218DF82410012103E0E10705D0202175
:10236000F7E70DF1200908910CE00021F9E701CF12
:102370004FF00A0BF9E75946FFF704FF01F130026D
:1023800009F8012D0028F6D1ADEB090000F1200B72
:10239000600701D44FF00108D84502DDA8EB0B001F
:1023A00000E000208046002406E009A85246005DB7
:1023B0000D999047641C761C08988442F5DB04E074
:1023C000302052460D999047761CB8F10001A8F1D3
:1023D0000108F5DC05E019F8010B52460D9990470C
:1023E000761CBBF10001ABF1010BF4DC6D1C34E792
:1023F000092801000A68531C0B6010707047000028
:102400003132333435360000000000000000000097
:1024100000000000000000000000000000000000BC
:1024200000000000000000000000000000000000AC
:10243000000000000000000000000000000000009C
:10244000000000000000000000000000000000008C
:10245000000000000000000000000000000000007C
:102460000000000000C1814001C0804101C08041E6
:1024700000C1814001C0804100C1814000C1814054
:1024800001C0804101C0804100C1814000C1814044
:1024900001C0804100C1814001C0804101C0804134
:1024A00000C1814001C0804100C1814000C1814024
:1024B00001C0804100C1814001C0804101C0804114
:1024C00000C1814000C1814001C0804101C0804104
:1024D00000C1814001C0804100C1814000C18140F4
:1024E00001C0804101C0804100C1814000C18140E4
:1024F00001C0804100C1814001C0804101C08041D4
:1025000000C1814000C1814001C0804101C08041C3
:1025100000C1814001C0804100C1814000C18140B3
:1025200001C0804100C1814001C0804101C08041A3
:1025300000C1814001C0804100C1814000C1814093
:1025400001C0804101C0804100C1814000C1814083
:1025500001C0804100C1814001C0804101C0804173
:1025600000C1814000C0C101C30302C2C60607C743
:1025700005C5C404CC0C0DCD0FCFCE0E0ACACB0BB3
:10258000C90908C8D81819D91BDBDA1A1EDEDF1FE3
:10259000DD1D1CDC14D4D515D71716D6D21213D3D3
:1025A00011D1D010F03031F133F3F23236F6F73783
:1025B000F53534F43CFCFD3DFF3F3EFEFA3A3BFB73
:1025C00039F9F83828E8E929EB2B2AEAEE2E2FEF23
:1025D0002DEDEC2CE42425E527E7E62622E2E32393
:1025E000E12120E0A06061A163A3A26266A6A767C3
:1025F000A56564A46CACAD6DAF6F6EAEAA6A6BAB33
:1026000069A9A86878B8B979BB7B7ABABE7E7FBF62
:102610007DBDBC7CB47475B577B7B67672B2B37352
:10262000B17170B050909151935352929656579702
:10263000559594549C5C5D9D5F9F9E5E5A9A9B5BF2
:1026400099595898884849894B8B8A4A4E8E8F4FA2
:102650008D4D4C8C44848545874746868242438312
:10266000418180408426000800000020880000008E
:102670001C2200080C27000888000020880A00009F
:102680002C22000800A24A04000000000000000004
:102690000102030406070809000000000102030408
:1026A00001020304060708090204060800000000EE
:1026B000419C439C459C469C479C489C4A9C4C9C06
:1026C000509C549C589C5C9C609C689C6A9C6C9C34
:1026D0006E9C709C729C749C769C7A9C7C9C7E9C6C
:1026E000809C829C849C869C8A9C8E9CA49C0000DE
:1026F00000000000000000000000000000000000DA
:0C270000000000000000000000000000CD
:0400000508000131BD
:00000001FF
